:100000000C9495020C94C6020C94C6020C94C60281
:100010000C94C6020C94C6020C94C6020C94C60240
:100020000C94C6020C94C6020C94C6020C94C60230
:100030000C94C6020C94C6020C94C6020C94C60220
:100040000C94C6020C94C6020C94C6020C94C60210
:100050000C94C6020C94C6020C94C6020C94A928F7
:100060000C94C6020C94351D0C940B1D0C94C60206
:100070000C94C6020C94C6020C94C6020C94C602E0
:100080000C94C6020C94C6020C94C6020C94C602D0
:100090000C94C6020C94C6020C94C6020C94C602C0
:1000A0000C94C6020C94C6020C94C6020C94C602B0
:1000B0000C94C6020C94C6020C94C6020C94C602A0
:1000C0000C94C6020C94C6020C94C6020C94C60290
:1000D0000C94C6020C94C6020C94C6020C94C60280
:1000E0000C94C602E425E725D625DA25DE251E2652
:1000F000EB25EF25F525F925FD25032607260B26FB
:100100001E261126152619260C94DF020C940D1CB0
:100110000C94D2030C94B41B0C94FD250C94DA259A
:100120000C94362E0C94C81B0C94F0090C943909CD
:100130000C94EF250C9414050C9423030C94B8092B
:100140000C94C8020C94E10B0C94F9250C94320524
:100150000C940B260C9456030C9403260C94D61B7B
:100160000C9402030C941E260C9451050C94152635
:100170000C943B240C9454030C9439030C94C00B42
:100180000C94EB250C9418030C94A1040C94050C0E
:100190000C9454080C9408080C94D6250C94A903CC
:1001A0000C94AF1C0C94F5250C94EB020C949B035F
:1001B0000C9479060C94A51B0C9407260C94B00F94
:1001C0000C94F91C0C94A5080C94E3020C94DE2505
:1001D0000C9446040C942C060C947E050C94470356
:1001E0000C945A030C94E4250C94E7020C944C03F1
:1001F0000C94B8030C94A1050C9419260C941126A8
:100200000C943D040C94BA0F0C940D0C0C947307D1
:100210000C9457030C941A040C94F1030C943404BA
:100220000C94C9020C94E7250C94541C0C94F5080A
:100230000C9449030C947A340C9464060C94CC2DE1
:100240000C94FB020C9471090C943D033C2F6874D0
:100250006D6C3E002054455354204F4B203C2F687A
:10026000313E003C68746D6C3E003C21444F435469
:100270005950452048544D4C3E00436F6E6E6563A7
:1002800074696F6E3A20636C6F736500436F6E74B0
:10029000656E742D547970653A20746578742F6892
:1002A000746D6C00485454502F312E312032303050
:1002B000204F4B0070617373776F72640061646DDF
:1002C000696E003C2F68746D6C3E003C68313E20C6
:1002D0004572726F7220343034202D2046696C656F
:1002E000204E6F7420466F756E64203A28203C2F94
:1002F00068313E003C68746D6C3E003C21444F43C5
:10030000545950452048544D4C3E00436F6E74651F
:100310006E742D547970653A20746578742F687402
:100320006D6C00485454502F312E3120343034201D
:100330004E6F7420466F756E6400485454502F31D0
:100340002E3120323030204F4B00436F6E74656E7B
:10035000742D547970653A20746578742F68746DC3
:100360006C00436F6E74656E742D547970653A201D
:10037000696D6167652F7376672B786D6C00436FCD
:100380006E74656E742D547970653A207465787456
:100390002F6A61766173637269707400436F6E7463
:1003A000656E742D547970653A20746578742F6386
:1003B000737300436F6E74656E742D547970653A73
:1003C00020746578742F68746D6C00436F6E6E6571
:1003D0006374696F6E3A20636C6F736500436F6E70
:1003E00074656E742D547970653A20746578742F35
:1003F00068746D6C0000002200250028002B002E80
:10040000003100340002010000050108010B010069
:10041000000A0B02090C0D0E08070304010000007E
:1004200000000000000000000000000000000000CC
:100430000000000000000000000000121110000089
:1004400000000000000000000000000000000000AC
:10045000000000000000002100240027002A002DD9
:10046000003000330001010000040107010A01000F
:100470000020002300260029002C002F003200005D
:10048000010000030106010901050505050705082E
:10049000080808020202020A0A0808040404040107
:1004A0000101010101010103030303030303030429
:1004B0000707070C0C0C0C0C0C0C0C0202020206B9
:1004C000060606060606060B0B0B0B0B0B0B0B01A9
:1004D0000210202008081020401020408002010255
:1004E000010804020101020408102040808040201D
:1004F0001008040201800402018040201008040258
:1005000001080402010102040810204080010204D5
:1005100008102040807C3C3E5E2B3D3F2F5B5D3BC6
:100520002C2A225C00007A34362E11241FBECFEF15
:10053000D1E2DEBFCDBF00E00CBF13E0A0E0B2E02F
:10054000E4E1F2E700E00BBF02C007900D92AC3B84
:10055000B107D9F727E0ACEBB3E001C01D92A83D8D
:10056000B207E1F712E0C4E9D2E000E006C021974B
:100570000109802FFE010E948736C339D10780E030
:100580000807A9F70E943A2E0C94F8380C94000042
:100590000895CF93DF931F92CDB7DEB76983DC0157
:1005A000ED91FC910280F381E02D41E050E0BE012D
:1005B0006F5F7F4F19950F90DF91CF910895FC01E8
:1005C000818D928D0895FC01848595850895FC01A7
:1005D0008489958908952BE333E0FC0131832083DE
:1005E000FB014089518962897389FC0142835383ED
:1005F000648375830895DC01ED91FC91048CF58D85
:10060000E02D1994CF93DF931F92CDB7DEB76983A6
:10061000DC01ED91FC910280F381E02D41E050E09E
:10062000BE016F5F7F4F19950F90DF91CF910895B5
:10063000FC019485FB018485981303C081E0983008
:1006400008F080E00895CF93DF931F92CDB7DEB717
:100650006983DC01ED91FC910280F381E02D41E0A2
:1006600050E0BE016F5F7F4F19950F90DF91CF91E2
:100670000895FC01768765870895DC01ED91FC9172
:10068000068CF78DE02D199591E089270895862F26
:10069000089581E08627089521E0FC018485883053
:1006A00008F020E0822F089580E00895089580E00A
:1006B00090E00895CF92DF92EF92FF920F931F93F5
:1006C000CF93DF9300D000D0CDB7DEB78C016B01A4
:1006D0007A01FC01808D883010F40E94E0128BE3D7
:1006E00093E09A838983F60182819381A481B58105
:1006F0008B839C83AD83BE83B701CE0101960E949C
:10070000A81AF801808F883030F4F586E486128EBE
:10071000118E81E001C080E026960FB6F894DEBF0E
:100720000FBECDBFDF91CF911F910F91FF90EF9042
:10073000DF90CF900895CF93DF93FC01808D8830B8
:1007400028F4EF010E94E01288E0888FDF91CF91BA
:100750000895FC01808D883040F4218D328D232B4B
:1007600021F00E946A1190E008958FEF9FEF0895A5
:10077000CF93DF93FC012485283018F08FEF9FEF93
:100780000EC0EC010190F081E02D0084F185E02D98
:100790001995892B99F38C850E946A1190E0DF915D
:1007A000CF910895CF93DF93FC01218D328D2115D8
:1007B000310519F48FEF9FEF11C0EC014217530779
:1007C00008F0A901888D0E94DD111816190694F70A
:1007D000298D3A8D281B390B3A8F298FDF91CF91C4
:1007E00008950F931F93CF93DF931F92CDB7DEB77A
:1007F000FC01218D328D232B61F08C0141E050E012
:10080000BE016F5F7F4F808D0E94DD1118161906A3
:100810001CF08FEF9FEF08C0F801818D928D01973A
:10082000928F818F898190E00F90DF91CF911F91FE
:100830000F910895CF93DF931F92CDB7DEB741E0BC
:1008400050E0BE016F5F7F4FFC0184850E94DD1187
:10085000181619061CF4898190E002C08FEF9FEFF3
:100860000F90DF91CF910895FC018485883010F4BA
:100870000C94DD1180E090E00895FC0184858830BF
:1008800010F40C94A01180E090E008950F931F9352
:10089000CF93DF93CDB7DEB728970FB6F894DEBFBE
:1008A0000FBECDBF8C01F801418D528D4115510510
:1008B00059F0D801ED91FC91048CF58DE02D60E0AC
:1008C00070E0C8011995EFCF808D0E94A011892B8F
:1008D00059F148E050E0BE016F5F7F4FD801589654
:1008E0008C910E94DD119C0118161906DCF4898197
:1008F0009A81AB81BC81F801808B918BA28BB38BE9
:100900008D8190E0982F88272E81820F911D958BE5
:10091000848B2F8130E0322F22278885280F311DCC
:10092000328F218FC90102C080E090E028960FB677
:10093000F894DEBF0FBECDBFDF91CF911F910F9115
:100940000895CF92DF92EF92FF920F931F93CF9370
:10095000DF93CDB7DEB7AF970FB6F894DEBF0FBE0B
:10096000CDBF7C016A010BE313E01A8309831C8667
:100970001B8688EE93E0A0E0B0E08D879E87AF876E
:10098000B88B89EC92E09A878987188F0F8B198E24
:100990001A8E1B8E1C8E88E089A31DA30CA31EA299
:1009A0001FA218A619A680917D0790917E07A0919D
:1009B0007F07B09180078CA79DA7AEA7BFA78B83A9
:1009C0009C83AD83BE8318861F82AE014C5D5F4F52
:1009D000CE0101960E94511881309105B1F4D701E2
:1009E000ED91FC910488F589E02D1BA70AA78EA143
:1009F0009FA1A8A5B9A58CA79DA7AEA7BFA7A60133
:100A0000BE01665D7F4FC7011995AF960FB6F8948A
:100A1000DEBF0FBECDBFDF91CF911F910F91FF9031
:100A2000EF90DF90CF9008950F931F93CF93DF93B4
:100A3000EC018B01888D883010F40E94E012B8011F
:100A400082E00E942A13888F883030F41D870C873B
:100A50001A8E198E81E001C080E0DF91CF911F9145
:100A60000F9108950F931F93CF93DF93FC0184851B
:100A7000883068F4C52FD42F8F010E94DF100097B3
:100A800049F421E030E0F8013383228305C080E09F
:100A900090E002C08D2F9C2FDF91CF911F910F917D
:100AA0000895EF92FF920F931F93CF93DF937C01F2
:100AB00080917D04833311F4D4E001C0D8E00DE6C9
:100AC00014E0C0E0F801219131918F01F701848198
:100AD00095812817390729F0CF5FCD13F3CF80E038
:100AE00006C08C2F0E9405138431B1F781E0DF919D
:100AF000CF911F910F91FF90EF900895CF93DF93C7
:100B0000EC018C858830C8F40E940513843181F093
:100B1000882371F0883161F08C3161F4E881F981CA
:100B20000084F185E02DCE01199521E0892B19F47F
:100B300020E001C021E0822F01C080E0DF91CF9151
:100B40000895CF92DF92EF92FF920F931F93CF936E
:100B5000DF93CDB7DEB7AF970FB6F894DEBF0FBE09
:100B6000CDBF8C016B017A018BE393E09A8389837B
:100B70001B821C821D821E821C861B8648EE53E04F
:100B800060E070E04D875E876F87788B29EC32E0FC
:100B90003A872987988F8F8B198E1A8E1B8E1C8E01
:100BA00028E029A39DA38CA31EA21FA218A619A604
:100BB000D8011C968C91883060F40E94051388231C
:100BC00021F0F80184850E94BB1288E0D8011C96B0
:100BD0008C9380917D0790917E07A0917F07B091C3
:100BE00080078CA79DA7AEA7BFA78B839C83AD83EF
:100BF000BE8318861F82AE014C5D5F4FB601CE01E9
:100C000001960E9451180097C1F0D801ED91FC9116
:100C10000684F785E02D8BE393E09BA78AA78EA13E
:100C20009FA1A8A5B9A58CA79DA7AEA7BFA7A701FF
:100C3000BE01665D7F4FC8011995AF960FB6F89457
:100C4000DEBF0FBECDBFDF91CF911F910F91FF90FF
:100C5000EF90DF90CF900895CF92DF92EF92FF92C6
:100C6000CF93DF93EC018C85883038F50E94BB125E
:100C70000E9403276B017C018C850E940513882349
:100C8000D1F061E070E080E090E00E94C9260E940F
:100C90000327AB01BC014C195D096E097F098D85E5
:100CA0009E85A0E0B0E0481759076A077B0720F34C
:100CB0008C850E94E01288E08C87DF91CF91FF90B5
:100CC000EF90DF90CF900895CF93DF93EC018C8568
:100CD000883060F40E940513873111F08C3131F4B3
:100CE0008C850E94A8108115984088F3DF91CF91E0
:100CF0000895FC018485883010F40C94A81080E0DD
:100D000090E00895DA019091BF03E92FF0E0FE2F03
:100D1000EE27E60FF71F90E0982F8827A901BD0165
:100D20008E0F9F1F0C94860DCF93DF931F921F92FF
:100D3000CDB7DEB779836A8322E030E0AE014F5F42
:100D40005F4F64E070E00E9482060F900F90DF9189
:100D5000CF910895CF93DF931F92CDB7DEB79091D7
:100D6000BF03292F30E0322F2227260F371F90E0B4
:100D7000982F8827498341E050E0BE016F5F7F4F85
:100D8000820F931F0E94860D0F90DF91CF910895DF
:100D9000CF93DF931F92CDB7DEB79091BF03292F7A
:100DA00030E0322F2227260F371F90E0982F882718
:100DB00041E050E0BE016F5F7F4F820F931F0E94A2
:100DC000E60C89810F90DF91CF91089563E070E088
:100DD0000C94C8069F92AF92BF92CF92DF92EF928F
:100DE000FF920F931F93CF93DF93EC016B018091E0
:100DF0007D04811111C01B821A8288EE93E0A0E06D
:100E0000B0E08C839D83AE83BF838EE592E09983AF
:100E1000888388E08C8756C0833319F434E0932E9E
:100E200002C028E0922E8DE6E82E84E0F82E10E035
:100E300098E0B92EA12CD7012D913C91F601848127
:100E4000958128173907F9F4812F0E940513082F7F
:100E5000873111F08C3159F4812F0E94A011892B18
:100E600071F40C3181F4812F0E94BB120CC08431CB
:100E700041F0811108C0D7011D921C9204C0B12E0F
:100E800002C0AA24A3941F5FB2E0EB0EF11C19115B
:100E9000D2CFA11008C0D601ED91FC910084F1855C
:100EA000E02DC60119951B821A8288EE93E0A0E01E
:100EB000B0E08C839D83AE83BF838EE592E09983FF
:100EC0008883BC8688EE93E09E878D87CE01DF9174
:100ED000CF911F910F91FF90EF90DF90CF90BF9037
:100EE000AF909F9008958F929F92AF92BF92CF92B2
:100EF000DF92EF92FF920F931F93CF93DF93CDB7C3
:100F0000DEB72F970FB6F894DEBF0FBECDBF20918E
:100F10007D04222369F1233319F434E0E32E02C067
:100F200028E0E22E8A015B016C01BC01CE01019632
:100F30000E94EA068DE6882E84E0982EF12CF401BA
:100F4000219131914F01F60184819581281739074C
:100F500051F48F2D0E940513873129F4A801B501A2
:100F60008F2D0E94DF10F394FE10E9CFC80102C05C
:100F700080E090E02F960FB6F894DEBF0FBECDBF95
:100F8000DF91CF911F910F91FF90EF90DF90CF9065
:100F9000BF90AF909F908F900895DA019091BF031A
:100FA000E92FF0E0FE2FEE27E60FF71F90E0982FD5
:100FB0008827A901BD018E0F9F1F0C94E60C089590
:100FC0008CBD9DBD08950F93FC0130E080E092E15F
:100FD000AAE7B0E0481759076A077B0740F4B695BF
:100FE000A795979587953F5F3630A1F737E091E059
:100FF0009327222311F020E501C020E7892F869551
:101000000C70082B022B0083917091830F9108952F
:101010006F927F928F929F92AF92BF92DF92EF92E8
:10102000FF920F931F93CF93DF931F921F92CDB721
:10103000DEB77C014B013A01FC01A688B788D08C51
:1010400000E021E040E85FE965ED70E0CE01019647
:101050000E94E30789819A810E94E0078D2D0E94FA
:1010600069108C016816790608F483019801A401BF
:10107000B5018D2D0E94E40FF70186899789800FB5
:10108000911F978B868BC8010F900F90DF91CF91A6
:101090001F910F91FF90EF90DF90BF90AF909F90C6
:1010A0008F907F906F9008950F931F93CF93DF934E
:1010B0001F921F92CDB7DEB7FC01108D00E021E03A
:1010C00040E85FE965ED70E0CE0101960E94E3071C
:1010D00089819A810E94E00760E270E0812F0E947E
:1010E000600C62E070E0812F0E94C80684FD1EC083
:1010F00062E070E0812F0E94C80683FF08C048E1CB
:1011000062E070E0812F0E94AA0680E016C000E035
:1011100021E040E85FE965ED70E0CE0101960E94B4
:10112000E30789819A810E94E007DBCF40E162E01A
:1011300070E0812F0E94AA0681E090E00F900F904E
:10114000DF91CF911F910F910895CF92DF92EF928F
:10115000FF920F931F93CF93DF931F921F92CDB7F0
:10116000DEB7FB01DC0157961C921E9256975896EB
:101170001C918281811109C08381811106C0848103
:10118000811103C08581882319F14115510501F1B1
:101190006A017F0100E021E040E85FE965ED70E071
:1011A000CE0101960E94E30789819A810E94E0079F
:1011B000A7014E5F5F4F24E030E06CE070E0812FCC
:1011C0000E948206B601812F0E94FC1381E001C0BB
:1011D00080E090E00F900F90DF91CF911F910F91E1
:1011E000FF90EF90DF90CF900895EF92FF920F93D2
:1011F0001F93CF93DF931F921F92CDB7DEB77C0171
:10120000FC016481758181E20E942A13182F8830C5
:1012100038F500E021E040E85FE965ED70E0CE01DF
:1012200001960E94E30789819A810E94E007812F3D
:101230000E94E606833189F462E070E0812F0E940B
:10124000600CF70184819581E12FF0E0EE0FFF1F24
:10125000E359FB4F9183808303C0812F0E94BB120F
:101260000F900F90DF91CF911F910F91FF90EF9012
:101270000895EF92FF920F93CF93DF931F921F92E7
:10128000CDB7DEB7FC012485283008F57C0100E0ED
:1012900021E040E85FE965ED70E0CE0101960E9433
:1012A000E30789819A810E94E00722E030E0AE01E5
:1012B0004F5F5F4F60E170E0F70184850E94CD07CA
:1012C000898190E0982F88272A81822B02C080E0B4
:1012D00090E00F900F90DF91CF910F91FF90EF90E2
:1012E0000895CF92DF92EF92FF920F93CF93DF9307
:1012F00000D01F92CDB7DEB77C016B01FB01848566
:10130000883050F08BE393E0F70191838083128261
:101310001382148215821FC000E021E040E85FE9DB
:1013200065ED70E0CE0101960E94E30789819A8104
:101330000E94E00724E030E0AE014F5F5F4F6CE0B9
:1013400070E0F60184850E94CD07BE016F5F7F4F7C
:10135000C7010E94FB1CC7010F900F900F900F90C8
:10136000DF91CF910F91FF90EF90DF90CF90089594
:10137000EF92FF920F93CF93DF931F921F92CDB7FF
:10138000DEB7FC012485283008F57C0100E021E06F
:1013900040E85FE965ED70E0CE0101960E94E30749
:1013A00089819A810E94E00722E030E0AE014F5F20
:1013B0005F4F64E070E0F70184850E94CD0789816A
:1013C00090E0982F88272A81822B02C080E090E04D
:1013D0000F900F90DF91CF910F91FF90EF900895B4
:1013E0008F929F92AF92BF92CF92DF92EF92FF9235
:1013F0000F931F93CF93DF931F921F92CDB7DEB74A
:101400007C016B015A01FC018485883058F40E94EC
:101410000513882321F0F70184850E94BB1288E020
:10142000F7018487F60182819381A481B5810097B9
:10143000A105B10509F460C08F3F9F4FAF4FBF4F6B
:1014400009F45AC060E070E081E20E942A13182F6C
:10145000F7018487883008F04FC000E021E040E8C1
:101460005FE965ED70E0CE0101960E94E307898196
:101470009A810E94E007A6014E5F5F4F24E030E0B2
:101480006CE070E0812F0E948206B501812F0E94DE
:10149000FC1364E070E0812F0E94600C0E9403271F
:1014A0004B015C01F70184850E940513873139F1F6
:1014B0008C3129F1882301F10E940327AB01BC0183
:1014C000481959096A097B09F70185859685A0E0C5
:1014D000B0E084179507A607B70738F061E070E021
:1014E00080E090E00E94C926DDCFF70184850E944C
:1014F000E01288E0F701848780E090E002C081E09C
:1015000090E00F900F90DF91CF911F910F91FF907E
:10151000EF90DF90CF90BF90AF909F908F90089505
:101520008F929F92AF92BF92CF92DF92EF92FF92F3
:101530000F931F93CF93DF93CDB7DEB7C054D1097C
:101540000FB6F894DEBF0FBECDBF80E4EAE1F2E053
:10155000DE01119601900D928A95E1F704E010E00A
:1015600088248A94982C5401C8010E940E36A50143
:1015700094012827DA01C9018F709927AA27BB2770
:10158000880F991F880F991FE1E0F0E0EC0FFD1F15
:10159000E80FF91FC080D180E280F38034E0B69478
:1015A000A794979487943A95D1F7C824D924EA242C
:1015B000FB24C8010E940E36482F50E064E0559588
:1015C00047956A95E1F7052E000C660B770B4C25C5
:1015D0005D256E257F254F70552766277727440F99
:1015E000551F440F551FE1E0F0E0EC0FFD1FE40F25
:1015F000F51F80809180A280B380E4E0F694E794A8
:10160000D794C794EA95D1F78C249D24AE24BF24A7
:1016100080949094A094B0940F5F1F4F011530E117
:10162000130709F0A1CFC501B401C05CDF4F0FB6AD
:10163000F894DEBF0FBECDBFDF91CF911F910F9108
:10164000FF90EF90DF90CF90BF90AF909F908F90E2
:101650000895EF92FF920F931F93CF93DF93EC01C6
:101660007B018A0164EA72E00E94F72D6CE872E067
:10167000CE010E94F72D6AE772E0CE010E94F72D9D
:10168000CE010E949F2A6AE672E0CE010E94F72DE9
:1016900063E672E0CE010E94F72D6DE673E0CE01A5
:1016A0000E94212EB701CE010E941A2E64E572E03D
:1016B000CE010E94F72D63E773E0CE010E94212E38
:1016C000B801CE010E941A2E68E773E0CE010E9495
:1016D000212ECE010E949F2A6CE472E0CE01DF91A0
:1016E000CF911F910F91FF90EF900C94F72DEF92F7
:1016F000FF920F931F93CF93DF931F92CDB7DEB767
:101700007C01FC0100811181C80169830E940E36B1
:101710006981681719F0C8010E941636C7010F9039
:10172000DF91CF911F910F91FF90EF900895FC01F1
:1017300020812EBDDC0131969C01260F371FE21758
:10174000F30741F051910DB407FEFDCF4EB55EBDDC
:101750004D93F5CF61507109FC01E60FF71F0DB4F1
:1017600007FEFDCF8EB580830895E091BD03F09113
:10177000BE0390818091BC03809589238083089566
:10178000DC015996ED91FC915A973097B9F0838915
:101790009489A589B6894285538564857585841B9E
:1017A000950BA60BB70B811520E89207A105B10593
:1017B00038F08FEF9FE7A0E0B0E0089580E090E080
:1017C0000895CF93DF931F92CDB7DEB76983DC0115
:1017D000ED91FC910280F381E02D41E050E0BE01EB
:1017E0006F5F7F4F19950F90DF91CF9108952091F2
:1017F0007D0490E0233311F40C9601C04896982F95
:10180000990F990F990F80E00895FC01818D928DB9
:10181000009711F00C946D220895CF93DF93EC01A3
:10182000898D9A8D009739F481E090E09B838A83BB
:1018300080E090E00BC0FC01138212820E94AB2278
:10184000E98DFA8D22813381232B71F7DF91CF91BE
:101850000895FF920F931F93CF93DF931F921F92D0
:10186000CDB7DEB7F82E22E030E0AE014F5F5F4F1C
:1018700066E270E00E94CD07098110E0102F00277A
:101880008A81082B22E030E0AE014F5F5F4F66E2B5
:1018900070E08F2D0E94CD07298130E0322F222762
:1018A0008A81282B2017310711F08901EBCFC8015D
:1018B0000F900F90DF91CF911F910F91FF9008959E
:1018C000CF93C82F462F61E070E00E94AA0661E026
:1018D00070E08C2F0E94C8068111F9CFCF91089536
:1018E000E091BD03F091BE0390818091BC03892BF0
:1018F000808308958EBD00000DB407FEFDCF8EB528
:1019000008958FEF0C947A0CCF92DF92FF920F9391
:101910001F93CF93DF9300D01F92CDB7DEB76C013A
:10192000F62E29833A834B835C830E94501EC601A6
:101930000E94861D6CE271E0C6010E946B1D8F2D16
:1019400080640E947A0C08E110E05C814B813A814E
:101950002981DA01C901002E04C0B695A795979593
:1019600087950A94D2F729833A834B835C830E943C
:101970007A0C0850110929813A814B815C81083F1A
:101980008FEF180731F7FF2029F0E8E0FE1204C0BE
:1019900087E803C085E901C08FEF0E947A0C10E050
:1019A0000E94810CF601828787FF04C01F3F11F05F
:1019B0001F5FF6CF0F900F900F900F90DF91CF9198
:1019C0001F910F91FF90DF90CF900895AF92BF923B
:1019D000CF92DF92EF92FF920F931F93CF93DF93FB
:1019E00000D01F92CDB7DEB78C016B017A018091D8
:1019F0007D048333F1F45B016801C40ED51E0C1520
:101A00001D0509F460C00E94B50B8FE00E947A0C9E
:101A1000812F0E947A0C802F0E947A0C0F5F1F4F3B
:101A200080E00E947A0CF50181935F010E94700CA6
:101A3000E6CF8433F1F40E94B50B19830A838F2D0E
:101A40008F778B83EC8264E070E0CE0101960E9478
:101A5000970BA70160E070E0C6010E94C738E1144F
:101A6000F10421F0B701C6010E94970B0E94700C8F
:101A70002AC00E94B50B0F3F110509F020F419820E
:101A80000A831B821DC017FD0BC019820A8393E0D5
:101A9000169507959A95E1F7007E08600B8310C0B4
:101AA000980186E0369527958A95E1F719830A8390
:101AB000207E0115104C10F4206101C028612B8399
:101AC00063E070E0C2CFC7010F900F900F900F90AE
:101AD000DF91CF911F910F91FF90EF90DF90CF900A
:101AE000BF90AF900895CF93DF931F92CDB7DEB72D
:101AF00041E050E0BE016F5F7F4F80E090E00E94C8
:101B0000E60C89810F90DF91CF910895AF92BF923B
:101B1000CF92DF92EF92FF920F931F93CF93DF93B9
:101B2000CDB7DEB728970FB6F894DEBF0FBECDBF96
:101B30008C017B016A0180917D048333E1F45801BB
:101B4000A40EB51E0A151B0509F48CC00E94B50B26
:101B500080EF0E947A0C812F0E947A0C802F0E94C5
:101B60007A0C0F5F1F4FF70181917F010E947A0C61
:101B70000E94700CE7CF843321F50E94B50B1983C6
:101B80000A838D2D80688B83CC8264E070E0CE0167
:101B900001960E94970B87010C0D1D1DE016F106A2
:101BA00069F0F70181917F010E947A0CF7CFB601AD
:101BB0006D5F7F4FCE0101960E94970B0E94700CC3
:101BC00051C00E94B50B0F3F110509F028F419828E
:101BD0000A8384E08B831DC017FD0BC019820A8322
:101BE00093E0169507959A95E1F7007E0C600B83BC
:101BF00010C0980186E0369527958A95E1F71983FC
:101C00000A83207E0115104C10F4246101C02C6160
:101C10002B8386E0C816D10498F420E0822F90E050
:101C20008C159D0520F6E4E0F0E0EC0FFD1FE80FB9
:101C3000F91FD701A80FB91F8C9180832F5FEECFBA
:101C400063E070E0CE0101960E94970B87010C0DB6
:101C50001D1DF70181917F010E947A0CE016F106AB
:101C6000C1F7ACCFC60128960FB6F894DEBF0FBE01
:101C7000CDBFDF91CF911F910F91FF90EF90DF903B
:101C8000CF90BF90AF900895CF93DF931F92CDB7C1
:101C9000DEB7898341E050E0BE016F5F7F4F80E097
:101CA00090E00E94860D0F90DF91CF910895CF9321
:101CB000DF9380E80E94440EC4E1D0E00E94730DDF
:101CC000882351F061E070E080E090E00E94C92636
:101CD0002197A1F780E001C081E0DF91CF910895C5
:101CE000EF92FF920F931F93CF93DF93EC017B0151
:101CF0008A011B821A8288EE93E0A0E0B0E08C8318
:101D00009D83AE83BF8389EF92E0998388838DE1C1
:101D100090E00E9496369A8F898F009779F02DE196
:101D2000F701DC0101900D922A95E1F74CE050E0BB
:101D3000B801CE010C960E94E938188EDF91CF9140
:101D40001F910F91FF90EF9008952F923F924F9225
:101D50005F926F927F928F929F92AF92BF92CF923B
:101D6000DF92EF92FF920F931F93CF93DF931F9217
:101D70001F92CDB7DEB7FC018581882309F4D9C055
:101D8000848180FFD6C021E02A83438954896589F4
:101D9000768982859385A485B585481759076A0792
:101DA0007B0709F41A826F013A81832F90E0DE01EC
:101DB00011964D013F01B6E06B0E711C892B09F4A1
:101DC0007DC0D6011A964D915D916D917C911D97C4
:101DD0005A01B1E0BB22F60125811A012B0189E0ED
:101DE00056944794379427948A95D1F7838D948D90
:101DF000223061F4FC01828D938DA48DB58DBC01E0
:101E0000CD01620D731D841D951D45C0DC01149626
:101E10001C9111501221A114B104D1F4111118C058
:101E2000452B462B472B51F4F6018789908DA18DC8
:101E3000B28D86839783A087B1870AC04681578178
:101E40006085718593010E94E71F882309F471C0A2
:101E5000F601238D348D86819781A085B185029707
:101E6000A109B109AC01BD01F901058404C0440F09
:101E7000551F661F771F0A94D2F786859785A0891C
:101E8000B189840F951FA61FB71FBC01CD01610F3B
:101E9000711D811D911DD60114962C9126FF14C031
:101EA000009108021091090220910A0230910B0260
:101EB000601771078207930751F506C0FA81FF2367
:101EC000C1F1898190E037C040E00E94FE1E882366
:101ED00081F1F501E357FB4FD401CF010196E817DB
:101EE000F90719F021912D93FACFEFEF8E1A9E0A80
:101EF000F60182859385A485B5850196A11DB11D46
:101F000082879387A487B58780E090E057CF7401DC
:101F100001E010E09501AB01BC018091D1079091E7
:101F2000D2070E946A1E882321F0BFEF8B1A9B0AFA
:101F3000DFCF8FEF9FEF0F900F90DF91CF911F9129
:101F40000F91FF90EF90DF90CF90BF90AF909F9058
:101F50008F907F906F905F904F903F902F9008955B
:101F6000FC01818D928D009711F00C94A50E8FEFDE
:101F70009FEF08950F931F93CF93DF93FC01818D03
:101F8000928D0097B9F0EF010E94A50E8C010F3FD2
:101F90008FEF180791F0898D9A8DFC01428553854A
:101FA0006485758541505109610971090E94D420E9
:101FB000C80105C080E090E002C08FEF9FEFDF9185
:101FC000CF911F910F9108957F928F929F92AF9220
:101FD000BF92CF92DF92EF92FF920F931F93CF9316
:101FE000DF931F921F92CDB7DEB7782E7B015A0187
:101FF000690122E030E0AE014F5F5F4F64E270E0C4
:102000000E94CD07098110E0102F00278A81082B3C
:102010000E0D1F1DC801977020917D04E72CF12C37
:10202000F701233311F4389601C07096FE2FEE2786
:10203000FF0FFF0FFF0FE80FF91F273321F4A60151
:10204000B501CF0122C09C012C0D3D1D213038402F
:10205000B0F360E078E04B01881A990AA401B50159
:10206000CF010E94860DA60148195909B501680DD6
:10207000791D80917D04833341F588E0E80EF11CE1
:102080009E2D990F990F990F80E00E94860D0C0DDF
:102090001D1D19830A8322E030E0AE014F5F5F4FC0
:1020A00064E270E0872D0E9482060F900F90DF910E
:1020B000CF911F910F91FF90EF90DF90CF90BF9045
:1020C000AF909F908F907F90089580E1E80EF11C73
:1020D000D7CFFF920F931F93CF93DF931F921F923F
:1020E000CDB7DEB7F82E22E030E0AE014F5F5F4F94
:1020F00060E270E00E94CD07098110E0102F0027F8
:102100008A81082B22E030E0AE014F5F5F4F60E232
:1021100070E08F2D0E94CD07298130E0322F2227D9
:102120008A81282B2017310711F08901EBCF87E036
:10213000F89EF0011124EB5CFB4F15830483C8016A
:102140000F900F90DF91CF911F910F91FF90089505
:10215000FF920F931F93CF93DF9300D01F92CDB7C1
:10216000DEB7F82E00E021E040E85FE965ED70E0C1
:10217000CE0101960E94E30789819A810E94E007BF
:102180008F2D0E946910182F8F2D9C830E94E606C8
:102190008B830E94DF078B819C81873129F08C31F2
:1021A00019F080E090E001C0812F0F900F900F9008
:1021B0000F90DF91CF911F910F91FF900895AF92F3
:1021C000BF92CF92DF92EF92FF920F931F93CF9324
:1021D000DF931F921F92CDB7DEB7182F6B017A01E4
:1021E0004130584018F0E12C88E0F82E00E021E062
:1021F00040E85FE965ED70E0CE0101960E94E307DB
:1022000089819A810E94E007812F0E9469105C01F8
:10221000812F0E94E606082F0E94DF07073111F088
:102220000C3121F4AE14BF0408F302C0E12CF12CF0
:1022300000E021E040E85FE965ED70E0CE01019645
:102240000E94E30789819A810E94E0079701A60115
:1022500060E070E0812F0E94E40F60E270E0812F67
:102260000E94600C62E070E0812F0E94C80684FD2D
:102270001BC0812F0E94E606811105C00E94DF0766
:1022800080E090E01AC00E94DF0700E021E040E813
:102290005FE965ED70E0CE0101960E94E307898158
:1022A0009A810E94E007DECF40E162E070E0812F7A
:1022B0000E94AA060E94DF07C7010F900F90DF91CE
:1022C000CF911F910F91FF90EF90DF90CF90BF9033
:1022D000AF9008950F931F93CF93DF931F921F9298
:1022E000CDB7DEB7182F00E021E040E85FE965EDEB
:1022F00070E0CE0101960E94E30789819A810E94D5
:10230000E007812F0E94F70B27E0129FF0011124B4
:10231000EB5CFB4F22813381377041E050E0BE011E
:102320006F5F7F4F820F931F0E94E60C0E94DF07B2
:1023300089810F900F90DF91CF911F910F91089598
:10234000EF92FF920F931F93CF93DF931F921F92F1
:10235000CDB7DEB7482F87E0489F90011124F901DF
:10236000EB5CFB4F7F01808191810097E9F4142F92
:1023700000E021E040E85FE965ED70E0CE01019604
:102380000E94E30789819A810E94E007812F0E94C1
:10239000290C8C010E94DF07F70186819801281B18
:1023A0003109C901318320830F900F90DF91CF91C4
:1023B0001F910F91FF90EF9008954F925F926F924F
:1023C0007F928F929F92AF92BF92CF92DF92EF92C5
:1023D000FF920F931F93CF93DF931F921F92CDB75E
:1023E000DEB7182F4B013A01A82EB12C27E0829FAF
:1023F000C0011124AC014B5C5B4F6A01FA01E08023
:10240000F18000E021E040E85FE965ED70E0CE0199
:1024100001960E94E30789819A810E94E007E614F1
:10242000F70454F4812F0E94290CF60126817C01C7
:10243000E21AF108F182E082E114F104A1F4812FA3
:102440000E94E606843109F480C0882309F47DC027
:1024500021E030E08C3111F420E030E0EE24FF2464
:10246000E21AF30A72C06E147F040CF4730187E061
:102470008A9DF0018B9DF00D1124EB5CFB4FC28017
:10248000D3808114910451F12601F7E05F22812F5E
:102490000E94F70B840D951D20917D04273311F4C4
:1024A000A70119C09701240D351D21303840C0F314
:1024B00020E038E0390164187508A301B4010E94D6
:1024C000E60C860C971C9701261937093901812FD4
:1024D0000E94F70BA301B4010E94E60CCE0CDF1C96
:1024E00087E08A9DF0018B9DF00D1124EB5CFB4F82
:1024F000D382C282808191818E199F0991838083CA
:102500002681A701420F511D4A3F510510F4892B26
:10251000D9F487E08A9DF0018B9DF00D1124EB5CCE
:10252000FB4F1682D982CA8222E030E0AE014F5FB3
:102530005F4F68E270E0812F0E94820660E470E0E5
:10254000812F0E94600C01C046830E94DF07C701F3
:102550000F900F90DF91CF911F910F91FF90EF900F
:10256000DF90CF90BF90AF909F908F907F906F90B3
:102570005F904F9008950F931F93CF93DF931F9217
:102580001F92CDB7DEB7182F00E021E040E85FE9E9
:1025900065ED70E0CE0101960E94E30789819A8182
:1025A0000E94E00768E070E0812F0E94600C0E94AA
:1025B000DF070F900F90DF91CF911F910F9108953A
:1025C0000F931F93CF93DF931F921F92CDB7DEB768
:1025D000182F00E021E040E85FE965ED70E0CE01F2
:1025E00001960E94E30789819A810E94E00760E1D9
:1025F00070E0812F0E94600C0E94DF070F900F9007
:10260000DF91CF911F910F9108950F931F93CF9357
:10261000DF9300D0CDB7DEB7182F00E021E040E80F
:102620005FE965ED70E0CE0101960E94E3078981C4
:102630009A810E94E007812F0E94E6068B830E9408
:10264000DF078B810F900F900F90DF91CF911F913B
:102650000F9108956F927F928F929F92AF92BF9247
:10266000CF92DF92EF92FF920F931F93CF93DF935E
:10267000CDB7DEB72A970FB6F894DEBF0FBECDBF39
:1026800090917D04992309F4A1C0933319F454E087
:10269000652E02C048E0642E6B01782E00E021E038
:1026A00040E85FE965ED70E0CE0101967C010E9493
:1026B000E30789819A810E94E007570147010E2DA7
:1026C000182D1E19812F0E94E606F40181934F01F7
:1026D0008823E1F08E2F8E19861590F31A2D101B8A
:1026E000F50191915F019D3161F0983151F09A515E
:1026F000923038F08E2F801B861580F30E94DF0702
:1027000065C060E170E0812F0E94600CA12EB12CA9
:10271000F501EE0FFF1FE359FB4F1182108283EE8C
:1027200093E00197F1F7472D60E070E0812F0E9460
:10273000AA064FEF62E070E0812F0E94AA06C11442
:10274000D10411F0B60113C08091060290910702E6
:1027500001968115F0EC9F0710F480E090EC9093C7
:102760000702809306026091060270910702812F92
:102770000E94940661E070E0812F0E94600C27E0C7
:102780002A9DC0012B9D900D11249C012B5C3B4F79
:102790007901F9011182108222E030E0AE01475F39
:1027A0005F4F68E270E0812F0E94CD07898590E03D
:1027B000982F88272A85822BF7019383828316829C
:1027C000158214820E94DF07812F01C088E02A96BB
:1027D0000FB6F894DEBF0FBECDBFDF91CF911F9132
:1027E0000F91FF90EF90DF90CF90BF90AF909F90B0
:1027F0008F907F906F900895CF93DF931F921F92D9
:10280000CDB7DEB779836A8322E030E0AE014F5F57
:102810005F4F60E170E00E9482060F900F90DF91A1
:10282000CF9108952F923F924F925F926F927F9235
:102830008F929F92AF92BF92CF92DF92EF92FF92D0
:102840000F931F93CF93DF93CDB7DEB7C15AD10952
:102850000FB6F894DEBF0FBECDBF7C018B016AEBD3
:1028600073E0CE0184569F4F0E94D52960E2C801D3
:102870000E94F3289C0140E050E0B801CE018A5646
:102880009F4F0E94102A6EE773E0CE018A569F4F39
:102890000E942C29882309F4CDC36FE3C8010E944C
:1028A000F3288F3F2FEF920719F097FF3CC3C2C365
:1028B0006FE2C8010E94F328F80124813581AC0140
:1028C000B801CE0189960E94102ACDA4DEA48E0103
:1028D0000F5F1F4FC114D10411F4198211C087E298
:1028E000C816D10418F097E2C92ED12C69A57AA593
:1028F000A601C8010E94E938F801EC0DFD1D108207
:10290000CE0189960E94D0296AEB73E0CE018057F0
:102910009F4F0E94D5296801F80101900020E9F736
:102920003197E01BF10BC601801B910B8E179F079F
:1029300088F4F60161916F016A3061F06D3051F0F9
:10294000603241F06F3331F0CE0180579F4F0E94CB
:102950004B29E2CF62E873E0CE0180579F4F0E947F
:102960002C29882339F064E873E0CE0180579F4F0B
:102970000E94A4296AEB73E0CE0186579F4F0E9404
:10298000D529CC57DF4F19821882C458D040CA5776
:10299000DF4F19821882C658D040C857DF4F1982BE
:1029A0001882C858D0406DED73E0CE018C579F4F10
:1029B0000E947C29C258DF4F19821882CE57D0401E
:1029C000C058DF4F19821882C058D040CE57DF4F11
:1029D00019821882C258D0406BEC73E0CE01825845
:1029E0009F4F0E947C296EE873E0CE0189960E9479
:1029F000D529BE01675D7F4FCE0180579F4F0E9452
:102A00000C29811114C063E973E0C8010E94D52923
:102A1000B801CE0180579F4F0E940C29DD24D3942A
:102A2000811101C0D12CC8010E94D02902C0DD242F
:102A3000D394CE0189960E94D029DD2019F063EB52
:102A400073E059C069E973E0C8010E94D529B80153
:102A5000CE0180579F4F0E940C29D82EC8010E949A
:102A6000D029DD2019F06CE973E045C06EE973E010
:102A7000C8010E94D529B801CE0180579F4F0E94FE
:102A80000C29D82EC8010E94D029DD2019F06EE74C
:102A900073E031C062EA73E0CE0189960E94D529C5
:102AA000BE01675D7F4FCE0180579F4F0E940C296A
:102AB000811114C067EA73E0C8010E94D529B801EA
:102AC000CE0180579F4F0E940C29DD24D3948111A1
:102AD00001C0D12CC8010E94D02902C0DD24D394AA
:102AE000CE0189960E94D029DD2019F062E673E0BC
:102AF00002C06AE473E0CE0186579F4F0E947C2992
:102B0000C057DF4F48805980C059D0401CA61BA633
:102B10008FE293E09AA789A71EA61C821B829A8344
:102B200089831E82CE0189960E94F22B32014801D0
:102B3000CE0189966C016FE270E0C3010E94CE382D
:102B4000009709F445C0F30120812F3221F4FFEFF3
:102B50006F1A7F0AF0CF86198D3008F08CE0A82E0E
:102B6000B12CA501B301CE018D599F4F0E94E938C8
:102B7000E3E6F0E0EC0FFD1FEA0DFB1D1082C4013F
:102B80000E944C24F4018581882371F02A961FAE9F
:102B90001EAE2A978FE293E028969FAF8EAF2897BC
:102BA0002C961FAE2C9768C0AE014D595F4FB601F1
:102BB000C4010E940B2B882349F36A0C7B1CC601BD
:102BC0000E944C249C2D8D2D6401892E982EB3CF0C
:102BD000130124183508F601828193812A969FAF4C
:102BE0008EAF2A978FE293E028969FAF8EAF2897FB
:102BF00084812B968FAF2B9785812C968FAF2C9746
:102C000086819781A085B18560968CAF9DAFAEAF70
:102C1000BFAF609782859385A485B58564968CAF98
:102C20009DAFAEAFBFAF649786859785A089B18908
:102C300068968CAF9DAFAEAFBFAF6897828969963B
:102C40008FAF699783899489A589B6896D968CAF72
:102C50009DAFAEAFBFAF6D978789908DA18DB28DBF
:102C6000A1968CAF9DAFAEAFBFAFA197838D948D72
:102C7000A3969FAF8EAFA397420C531CF2018081A5
:102C8000811151C02A968EAD9FAD2A979C838B836C
:102C90008FE293E09A8389832B968FAD2B978D8358
:102CA0002C968FAD2C978E8360968CAD9DADAEAD7E
:102CB000BFAD60978F839887A987BA8764968CADDC
:102CC0009DADAEADBFAD64978B879C87AD87BE874A
:102CD00068968CAD9DADAEADBFAD68978F87988B74
:102CE000A98BBA8B69968FAD69978B8B6D968CADDE
:102CF0009DADAEADBFAD6D978C8B9D8BAE8BBF8BFD
:102D0000A1968CAD9DADAEADBFADA197888F998FCB
:102D1000AA8FBB8FA3968EAD9FADA3979D8F8C8FEF
:102D200042E853E076C01CA61BA68FE2C82E83E0C3
:102D3000D82EDAA6C9A61EA62C968FAD2C97811187
:102D40001CC0A7961FAE1EAEA79788EE93E0A0E02A
:102D5000B0E0AB968CAF9DAFAEAFBFAFAB9789EF96
:102D600092E0A5969FAF8EAFA597EE961FAE1EAED2
:102D7000EE97E0961FAEE09752C0A201BE016A5BDB
:102D80007F4FCE0189960E940B2B8823D1F2CE0172
:102D90008A5B9F4F0E944C248BA59CA59C838B83B0
:102DA000DA82C9828DA58D838EA58E838FA598A981
:102DB000A9A9BAA98F839887A987BA878BA99CA943
:102DC000ADA9BEA98B879C87AD87BE878FA998AD1B
:102DD000A9ADBAAD8F87988BA98BBA8B8BAD8B8B36
:102DE0008CAD9DADAEADBFAD8C8B9D8BAE8BBF8BD7
:102DF00024968CAD9DADAEADBFAD2497888F998FD5
:102E0000AA8FBB8F26968EAD9FAD26979D8F8C8FF8
:102E1000A201B801CE018D599F4F0E94700EEE960F
:102E2000EEADFFADEE973097D9F185818823C1F1E2
:102E30006AE373E0C7010E94F72DBE0166577F4F1A
:102E4000C7010E94A32ABE0162587F4FC7010E949A
:102E5000A32AC7010E949F2ACE018D599F4F0E942D
:102E6000C00B892B51F0CE018D599F4F0E94B00F9E
:102E7000682FC7010E942303EFCFEE968EAD9FAD62
:102E8000EE970097A1F10E944C24EE968EAD9FAD77
:102E9000EE970E942B37EE961FAE1EAEEE9727C020
:102EA00063E273E0C7010E94F72D6BE073E0C70196
:102EB0000E94F72DBE0162587F4FC7010E94A32ACE
:102EC000C7010E949F2A6BEF72E0C7010E94F72D95
:102ED00064EF72E0C7010E94F72D6BEC72E0C7014E
:102EE0000E94F72D63EC72E0C7010E94F72D61E0AC
:102EF00070E080E090E00E94C926C7010E942C0685
:102F0000CE0182589F4F0E94D029CE018C579F4FEF
:102F10000E94D029CE0186579F4F0E94D029CE0112
:102F200080579F4F4EC0F80124813581AC01B80114
:102F3000CE0189960E94102A60E2CE0189960E94F5
:102F4000F3289C0140E050E0BE01675D7F4FCE0159
:102F500001960E94102AC456DF4F88819981CC596E
:102F6000D040009709F07FC089819A81C456DF4F15
:102F700099838883CC59D0408B819C81C256DF4F86
:102F800099838883CE59D0408D819E81C056DF4F72
:102F900099838883C05AD0401A8219821C821B826E
:102FA0001E821D82CE0101960E94D029AE01445698
:102FB0005F4FBE016A567F4FC7010E94290BCE01A9
:102FC00089960E94D02909C0AE0144565F4FBE01C8
:102FD0006A567F4FC7010E94290B61E070E080E0D4
:102FE00090E00E94C926C7010E942C06CE018A5695
:102FF0009F4F0E94D029CE0184569F4F0E94D02916
:10300000CF55DF4F0FB6F894DEBF0FBECDBFDF91B7
:10301000CF911F910F91FF90EF90DF90CF90BF90D5
:10302000AF909F908F907F906F905F904F903F9068
:103030002F9008956CEA73E0CE018A569F4F0E944C
:103040002C29882351F2C7010E943D04892B09F4E1
:10305000BBCFC7010E941A04682FCE0184569F4F30
:103060000E944B29F0CF69817A8161157105B1F019
:10307000C256DF4F48815981CE59D0402D813E81C3
:103080004217530758F00E94E2388D819E81C05646
:10309000DF4F99838883C05AD04082CF0E942B375C
:1030A00063CF2F923F924F925F926F927F928F9257
:1030B0009F92AF92BF92CF92DF92EF92FF920F93C7
:1030C0001F93CF93DF93CDB7DEB765970FB6F89414
:1030D000DEBF0FBECDBF7C016B013A01FB0120E0DA
:1030E00080E090E06AE03191332309F140ED430F35
:1030F0004A3080F4689FA001699F500D1124CA01D5
:10310000C097830F911D37FD9A958F3F910559F315
:1031100050F313C03E3289F4233079F0D301A20F6B
:10312000B11D12968C932F5F80E090E0DCCF2330AE
:1031300021F4F301858381E021C0F70142815381AD
:103140006481758180918F0690919006A09191067F
:10315000B0919206481759076A077B0709F493C193
:103160000E9403278701085F1F4F6F7077277C5FDE
:10317000C8010E941405813019F080E090E0CFC1B1
:103180008BE393E09A838983F70182819381A48101
:10319000B5818B839C83AD83BE8345E350E0BE0144
:1031A0006F5F7F4FC8010E94A508892B19F4C12CBD
:1031B000D12C64C10E940327F7017783668342E024
:1031C00050E0B7016A5F7F4FC8010E94080881E0A4
:1031D00090E09A83898342E050E0BE016F5F7F4FA9
:1031E000C8010E94080880E091E09A83898342E048
:1031F00050E0BE016F5F7F4FC8010E9408081A822D
:10320000198242E050E0BE016F5F7F4FC8010E940B
:10321000080842E050E0BE016F5F7F4FC8010E9486
:10322000080842E050E0BE016F5F7F4FC8010E9476
:1032300008085601F5018081882311F1F6015F012C
:103240008191811115C045018C189D08181419042D
:1032500094F48D8641E050E0BE01635F7F4FC8016A
:103260000E940808A401B601C8010E94080803C012
:103270008E3229F7E8CF6501FFEFCF1ADF0ADACFE8
:103280001D8641E050E0BE01635F7F4FC8010E9490
:103290000808C12CDD24D394DA82C98242E050E0D0
:1032A000BE016F5F7F4FC8010E940808DA82C982A1
:1032B00042E050E0BE016F5F7F4FC8010E940808E6
:1032C000C8010E945408892B09F471CF83E0A82E0D
:1032D000B12CF2E06F0E711C0E9403271B012C0120
:1032E000C8010E94460418161906A4F00E9403277C
:1032F000DC01CB0182199309A409B50989389341EE
:10330000A105B105D0F462E370E080E090E00E9496
:10331000C926E6CFF7014281538164817581808D92
:10332000918DA28DB38D481759076A077B0741F429
:10333000848D958DC59721F406C02FEF3FEF94C083
:103340002EEF3FEF91C0F70181A192A10C970CF4F1
:10335000E3C04CE050E0BE016F5F7F4FC8010E94A8
:10336000D2038B819C819827892798279A8B898BF8
:10337000F7014681578129813A814217530709F0A5
:10338000C2C097FFC0C08F709270892B09F0BEC079
:10339000CF80D884DC24CD24DC24C114D10409F4EA
:1033A000B8C0812C912C8D819E81982789279827E0
:1033B0008816990608F46AC0812C912C41E050E0EF
:1033C000BE016D5E7F4FC8010E94D2034B89842FDE
:1033D000807C09F07AC0442331F050E060E070E076
:1033E000C8010E94D2038B898111E8CF42E050E0EE
:1033F000BE01615F7F4FC8010E94D20342E050E0EE
:10340000BE01635F7F4FC8010E94D20344E050E0D9
:1034100060E070E0C8010E94D20342E050E0BE01CB
:103420006F5E7F4FC8010E94D2038F8598894989BA
:103430005A898115914009F051C02D853E8532276A
:10344000232732272130310509F048C04115544067
:1034500009F056C044E050E0B301C8012C8B3D8B0D
:103460000E94D2032C893D896901F1E0AF1AB108AD
:1034700029F02FEFC216D20609F42ECFC8010E9400
:103480009B03C6014CC08EEF9FEF49C041E050E066
:10349000BE01635F7F4FC8010E94D2034D85442364
:1034A00031F050E060E070E0C8010E94D2038D85E9
:1034B0008111ECCF44E050E060E070E0C8010E9470
:1034C000D203FFEF8F1A9F0A6ECF41E050E060E019
:1034D00070E0C8010E94D2031B8A85CF542745277C
:1034E000542760E070E0C8010E94D203EFEF8E1A0B
:1034F0009E0A8C149D0409F061CF26EF3FEFB4CFF4
:1035000027EF3FEFB1CF2CEF3FEFAECF2BEF3FEFE9
:10351000ABCF2AEF3FEFA8CF2DEF3FEFA5CF6596BA
:103520000FB6F894DEBF0FBECDBFDF91CF911F91D4
:103530000F91FF90EF90DF90CF90BF90AF909F9052
:103540008F907F906F905F904F903F902F90089555
:103550005F926F927F928F929F92AF92BF92CF9223
:10356000DF92EF92FF920F931F93CF93DF93CDB72C
:10357000DEB760970FB6F894DEBF0FBECDBF7C01FB
:1035800090917D04992309F4C9C0933319F454E050
:10359000552E02C048E0542E5B0100E021E040E8D7
:1035A0005FE965ED70E0CE0101966C010E94E307D2
:1035B00089819A810E94E007460136010C2D162D63
:1035C0001C19812F0E94E606F30181933F01882395
:1035D000E1F08E2F8C19851590F3882D801BF40156
:1035E00091914F019D3161F0983151F09A51923093
:1035F00038F08E2F801B851580F30E94DF078EC068
:10360000182F60E170E00E94600CC12ED12CF601F1
:10361000EE0FFF1FE359FB4F1182108283EE93E000
:103620000197F1F742E860E070E0812F0E94AA065E
:103630004FEF62E070E0812F0E94AA06A114B1044E
:1036400011F0B50113C08091060290910702019616
:103650008115F0EC9F0710F480E090EC9093070246
:10366000809306026091060270910702812F0E94EA
:10367000940686E0EFEEF2E0DE01199601900D92DD
:103680008A95E1F7F70183818F778C8784818D8715
:1036900085818E87A7014E5F5F4F24E030E06CE0AC
:1036A00070E0812F0E948206B501812F0E94FC13D9
:1036B00026E030E0AE01475F5F4F66E070E0812FAB
:1036C0000E94820661E070E0812F0E94600C27E07A
:1036D0002C9DC0012D9D900D11249C012B5C3B4F16
:1036E0007901F9011182108222E030E0AE01415FE0
:1036F0005F4F68E270E0812F0E94CD078F8590E0D8
:10370000982F88272889822BF7019383828316823A
:10371000158214820E94DF07812F01C088E0609625
:103720000FB6F894DEBF0FBECDBFDF91CF911F91D2
:103730000F91FF90EF90DF90CF90BF90AF909F9050
:103740008F907F906F905F900895FC01538D448D12
:10375000252F30E0842F90E0821B930B541710F03C
:10376000CF96089501970895FC01918D828D981749
:1037700061F0828DDF01A80FB11D5D968C91928D55
:103780009F5F9F73928F90E008958FEF9FEF089552
:10379000FC01918D828D981731F0828DE80FF11D1B
:1037A000858D90E008958FEF9FEF0895FC01918D36
:1037B000228D892F90E0805C9F4F821B91098F732F
:1037C0009927089583E996E00E94D61B21E0892B72
:1037D00009F420E0822F0895FC01848DDF01A80FF9
:1037E000B11DA35ABF4F2C91848D90E001968F7329
:1037F0009927848FA689B7892C93A089B1898C9148
:1038000080648C93938D848D981306C00288F3890D
:10381000E02D80818F7D80830895EF92FF920F933A
:103820001F93CF93DF93EC0181E0888F9B8D8C8D6C
:10383000981305C0E889F989808185FD24C0F62E9A
:103840000B8D10E00F5F1F4F0F731127E02E8C8D33
:10385000E8120CC00FB607FCFACFE889F98980811D
:1038600085FFF5CFCE010E94EC1BF1CF8B8DFE01C1
:10387000E80FF11DE35AFF4FF0820B8FEA89FB89B5
:103880008081806207C0EE89FF896083E889F989B9
:1038900080818064808381E090E0DF91CF911F91EF
:1038A0000F91FF90EF900895CF93DF93EC01888DF7
:1038B0008823C9F0EA89FB89808185FD05C0A88934
:1038C000B9898C9186FD0FC00FB607FCF5CF8081BA
:1038D00085FFF2CFA889B9898C9185FFEDCFCE0104
:1038E0000E94EC1BE7CFDF91CF91089580E090E03C
:1038F000892B21F00E94E21B811125C080E090E01D
:10390000892B41F080E090E0892B21F00E9400009B
:1039100081111CC080E090E0892B41F080E090E0B4
:10392000892B21F00E940000811113C080E090E0FB
:10393000892BA1F080E090E0892B81F00E940000AB
:1039400081110AC008950E940000D8CF0E94000093
:10395000E1CF0E940000EACF0C94000008958F92FE
:103960009F92AF92BF92CF92DF92EF92FF920F930E
:103970001F93CF93DF937C01EB016C0182E0C80EB3
:10398000D11C4701E5E08E0E911C00E010E0F6012D
:1039900041916F0150E060E070E02AE0CE010E94AA
:1039A000562A5C01E881F9810190F081E02D6EE2F8
:1039B000CE0119958A0D9B1D080F191FC814D90433
:1039C00031F7F701458150E060E070E02AE0CE0178
:1039D0000E94562A800F911FDF91CF911F910F9166
:1039E000FF90EF90DF90CF90BF90AF909F908F901F
:1039F00008950E94AC382BE333E0FC01318320832F
:103A0000FB014081518162817381FC0142835383B8
:103A10006483758308951F920F920FB60F9211243D
:103A20000BB60F922F933F934F935F936F937F93B8
:103A30008F939F93AF93BF93EF93FF9383E996E0A8
:103A40000E94EC1BFF91EF91BF91AF919F918F91DD
:103A50007F916F915F914F913F912F910F900BBE8E
:103A60000F900FBE0F901F9018951F920F920FB6D8
:103A70000F9211240BB60F922F938F939F93EF9376
:103A8000FF93E091A306F091A4068081E091A9063E
:103A9000F091AA0682FD12C090818091AC068F5FE2
:103AA0008F732091AD06821751F0E091AC06F0E0E3
:103AB000ED56F94F958F8093AC0601C08081FF9140
:103AC000EF919F918F912F910F900BBE0F900FBE92
:103AD0000F901F9018950F931F93CF93DF93EB01D7
:103AE0000E9403278B010E94810C8F3F49F00E94A6
:103AF0000327601B710B6C177D07A8F380E001C0E2
:103B000081E0DF91CF911F910F910895CF93DF93C3
:103B1000EC0180917E04811109C081E080937E04D4
:103B200080913007909131070E94E00760E08C811E
:103B3000DF91CF910C94B52561E0FC0184810E9456
:103B4000B52580917E04882321F010927E040C9488
:103B5000DF070895EF92FF920F931F93CF93DF93A8
:103B6000EC017901411551056105710511F482E1FE
:103B70003CC08B85833039F089E0440F551F661FA8
:103B8000771F8A95D1F79A01AB0168E1CE010E94B7
:103B9000840C882311F084E028C08EEF0E947A0CF8
:103BA00087018EEFF81AF80181918F010E947A0C3B
:103BB0000E151F05C1F78FEF0E947A0C8FEF0E9440
:103BC0007A0C0E94810C8A878F71853031F081E1F7
:103BD0008D83CE010E949C1D09C068E572E0CE0174
:103BE0000E946B1D811107C085E18D83CE010E946B
:103BF0009C1D80E013C020E030E0A9016DE0CE0103
:103C00000E94840C811104C00E94810C882311F051
:103C100084E1EBCFCE010E949C1D81E0DF91CF912A
:103C20001F910F91FF90EF9008958091D307882303
:103C3000A9F1409108025091090260910A02709125
:103C40000B022DE834E08091D1079091D2070E94B9
:103C5000AA1D811102C080E0089540917F04509117
:103C600080046091810470918204411551056105C1
:103C7000710591F02DE834E08091D1079091D20741
:103C80000E94AA1D882339F310927F0410928004A9
:103C900010928104109282041092D30781E008955B
:103CA000CF93DF93EC018E81882389F08F819885F3
:103CB0009C012F5F3F4F38872F838230924018F44A
:103CC0000E94810CF3CFCE010E949C1D1E82DF91C9
:103CD000CF910895AF92BF92CF92DF92EF92FF9271
:103CE0000F931F93CF93DF93EC016901C801820FFB
:103CF000931F8130924008F070C08E81882371F04C
:103D000088819981AA81BB81481759076A077B0777
:103D100029F48F819885C816D906B0F54883598350
:103D20006A837B838B85833039F089E0440F551F8C
:103D3000661F771F8A95D1F79A01AB0161E1CE0129
:103D40000E94840C882319F083E08D8346C00E9472
:103D500003275B010E94810C8A878F3F49F40E94F0
:103D600003276A197B096D327140A0F38FE003C00D
:103D70008E3F31F08DE08D83CE010E949C1D2DC0C1
:103D800018861F8281E08E838F8198858C159D0512
:103D900040F40E94810C8F819885019698878F83CB
:103DA000F3CF6701E00EF11ECE14DF0431F00E9464
:103DB000810CF60181936F01F7CF8F819885080FF1
:103DC000191F18870F838985882319F00115124060
:103DD00048F0CE010E94501E05C0CE010E949C1DDD
:103DE00080E001C081E0DF91CF911F910F91FF90A2
:103DF000EF90DF90CF90BF90AF9008958F929F92F9
:103E0000AF92BF92EF92FF920F931F93CF934B010C
:103E10005C01C42F8091080290910902A0910A02CE
:103E2000B0910B0288159905AA05BB0501F10E9406
:103E3000151E811102C080E020C08DE8E82E84E0CC
:103E4000F82E00E012E020E030E0B501A4018091FE
:103E5000D1079091D2070E946A1E882361F3809255
:103E6000080290920902A0920A02B0920B0280917D
:103E7000D307C82BC093D30781E0CF911F910F9137
:103E8000FF90EF90BF90AF909F908F9008954F92CA
:103E90005F926F927F928F929F92AF92BF92CF92DA
:103EA000DF92EF92FF920F931F93CF93DF93EC017A
:103EB0006A017B0128013901423051056105710514
:103EC00010F480E073C089859A85AB85BC85019626
:103ED000A11DB11D84179507A607B70790F38B881E
:103EE0009C88AD88BE888F89803129F4BB27AF2D8F
:103EF0009E2D8D2D09C0DB01CA0147E0B695A7951F
:103F0000979587954A95D1F7880E991EAA1EBB1ED4
:103F10008091080290910902A0910A02B0910B02CF
:103F200088169906AA06BB0679F48F898031A1F418
:103F3000DD24EE24FF24C601880F991FFC01E357FE
:103F4000FB4F5182408219C040E0C501B4010E947C
:103F5000FE1E8111EACFB5CFE894C7F8DD24EE2428
:103F6000FF24C601880F991F880F991FFC01E35792
:103F7000FB4F40825182628273828091D3078160BD
:103F80008093D3078A89823080F08D819E81AF81B2
:103F9000B885880E991EAA1EBB1E80927F0490923F
:103FA0008004A0928104B092820481E0DF91CF91DD
:103FB0001F910F91FF90EF90DF90CF90BF90AF9047
:103FC0009F908F907F906F905F904F9008958F9209
:103FD0009F92AF92BF92CF92DF92EF92FF920F9398
:103FE0001F93CF93DF93FC0181859285A385B485D0
:103FF0000196A11DB11D84179507A607B70710F4F8
:1040000080E05CC083899489A589B689C789C0315D
:1040100029F4852E962EA72EBB2409C04A015B01E8
:10402000C7E0B694A79497948794CA95D1F7E9010D
:104030006A017B018F01BC01CD01680D791D8A1DCC
:104040009B1D8090080290900902A0900A02B090F7
:104050000B02681579058A059B0599F4F801878993
:104060008031A9F4B701A601552766277727440FA9
:10407000551FFA01E357FB4F80819181A0E0B0E02A
:1040800018C040E00E94FE1E8111E8CFB9CFB701F1
:10409000A6014F77552766277727440F551F440FF2
:1040A000551FFA01E357FB4F80819181A281B381B3
:1040B000BF7088839983AA83BB8381E0DF91CF910E
:1040C0001F910F91FF90EF90DF90CF90BF90AF9036
:1040D0009F908F9008954F925F926F927F92AF92D0
:1040E000BF92CF92DF92EF92FF920F931F93CF93E5
:1040F000DF9300D01F92CDB7DEB78C0149835A837E
:104100006B837C835901C12CD12C7601412C82E038
:10411000582E612C712C49815A816B817C819E01C2
:104120002F5F3F4FC8010E94E71F882351F1D30141
:10413000C201F801058404C0880F991FAA1FBB1F84
:104140000A94D2F7C80ED91EEA1EFB1E49815A8175
:104150006B817C818789803129F088EF9FEFAFEFF9
:10416000BFE004C088EF9FEFA0E0B0E04817590718
:104170006A077B0780F2F501C082D182E282F38276
:1041800081E00F900F900F900F90DF91CF911F91D2
:104190000F91FF90EF90DF90CF90BF90AF907F9006
:1041A0006F905F904F9008958F929F92AF92BF92C1
:1041B000CF92DF92EF92FF920F931F93CF93DF93F3
:1041C000EC018D81811102C080E077C00B891C89D0
:1041D0002D893E890417150726073707A8F36A01BA
:1041E0007B01823029F4CA86DB86EC86FD860DC011
:1041F000C114D104E104F10451F41E821F82188617
:1042000019861A861B861C861D8681E056C08A8404
:104210009B84AC84BD84EB8DFC8D258530E0275FCD
:104220003F4FB501A4014150510961097109022EA6
:1042300004C076956795579547950A94D2F7D701AC
:10424000C6010197A109B10904C0B695A795979534
:1042500087952A95D2F784179507A607B70720F008
:1042600089288A288B2849F44F89588D698D7A8D41
:104270004E835F836887798704C0841B950BA60BE8
:10428000B70B4C015D018E010A5F1F4F8114910431
:10429000A104B10409F4A7CF4E815F8168857985B7
:1042A00098018B8D9C8D0E94E71F91E0891A9108DF
:1042B000A108B1088111EACF87CFDF91CF911F917B
:1042C0000F91FF90EF90DF90CF90BF90AF909F90B5
:1042D0008F9008953F924F925F926F927F928F924C
:1042E0009F92AF92BF92CF92DF92EF92FF920F9385
:1042F0001F93CF93DF93CDB7DEB72C970FB6F8940B
:10430000DEBF0FBECDBF5C01DC015B968D909C9043
:104310005C971696CD90DD90ED90FC901997C114A6
:10432000D104E104F10439F0BFEFCB1ADB0AEB0A48
:10433000FB0A312C07C0F401C080D180E280F380F9
:1043400033243394F40181859285A385B4859C013F
:10435000AD012F5F3F4F4F4F5F4F29873A874B8704
:104360005C87260137011D821E821F821886F40198
:1043700081859285A385B4852D813E814F815885A5
:10438000281739074A075B0708F063C089859A85B3
:10439000AB85BC858C159D05AE05BF0550F482E04C
:1043A000C82ED12CE12CF12C92E0492E512C612CFD
:1043B000712C9E012F5F3F4FB701A601C4010E94DF
:1043C000E71F882309F445C089819A81AB81BC81AC
:1043D000892B8A2B8B2B41F0260137019FEF491A3D
:1043E000590A690A790A05C0C414D504E604F70419
:1043F00091F02D813E814F8158852F5F3F4F4F4F68
:104400005F4F2D833E834F8358873FEFC31AD30AF4
:10441000E30AF30AACCF0FEF1FEF2FEF3FE0B3013A
:10442000A201C4010E94471F882399F0D501169666
:104430004D915D916D917C911997411551056105E3
:10444000710549F093018201C4010E94471F811147
:1044500002C080E02AC0D50116964D925D926D9201
:104460007C921997332051F0D301C2010196A11D0E
:10447000B11DF40180839183A283B383F501878901
:10448000908DA18DB28D892B8A2B8B2B69F4D50150
:1044900057964D925D926D927C925A9714968C919C
:1044A0001497806814968C9381E02C960FB6F8943C
:1044B000DEBF0FBECDBFDF91CF911F910F91FF9057
:1044C000EF90DF90CF90BF90AF909F908F907F90B4
:1044D0006F905F904F903F900895CF93DF93EC01E2
:1044E0008D818823A1F18C8187FF2DC06E857F850A
:1044F0008889998941E00E94FE1E882341F1EA895A
:1045000080E2E89FF0011124DF01A357BB4F109711
:10451000F1F08D81823050F44B895C896D897E8900
:104520005C964D935D936D937C935F978F89988D87
:10453000A98DBA8DE357FB4F938F828FB58BA48BD8
:104540008C818F778C83DF91CF910C94151E80E046
:10455000DF91CF9108952F923F924F925F926F9289
:104560007F928F929F92AF92BF92CF92DF92EF9203
:10457000FF920F931F93CF93DF9300D01F92CDB77D
:10458000DEB78C015B011A01DC0115968C91159741
:104590008130C9F414968C9181FF15C082FF1BC035
:1045A000F801438954896589768982859385A48534
:1045B000B58584179507A607B70769F0C8010E945B
:1045C000D420811108C081E090E0F80193838283B8
:1045D00080E090E039C1610183C0D8015B968D9184
:1045E0009C915C97FC01248121502A013B0139E018
:1045F00076946794579447943A95D1F7722E742025
:104600007A01F1E0FF22772009F476C080E092E0A1
:104610008E199F0946018C159D0508F44C01D8019F
:104620005B962D913C915C9716968D919D910D9086
:10463000BC91A02D0297A109B109F901058404C01C
:10464000880F991FAA1FBB1F0A94D2F7468557856A
:1046500060897189840F951FA61FB71F9C01AD014A
:10466000270D311D411D511D29013A01811432E0F0
:10467000930609F088C08091080290910902A091E8
:104680000A02B0910B0284159505A605B70559F4E9
:104690008FEF9FEFDC018093080290930902A093B3
:1046A0000A02B0930B029501B301A2018091D107D8
:1046B0009091D2070E94AA1D882309F484CF9EEF0F
:1046C000B91AC818D908F80182859385A485B585DB
:1046D000880D991DA11DB11D82879387A487B58779
:1046E000D8011A964D915D916D917C911D97C114E1
:1046F000D10409F072CF87C0E114F10409F086CF2C
:1047000016964D915D916D917C91199741155105CA
:104710006105710559F457968D919D910D90BC914D
:10472000A02D0097A105B10541F521C09E012F5F85
:104730003F4F0E94E71F882309F44BCF89819A815C
:10474000AB81BC81F801238D348DF901278920319B
:1047500029F048EF5FEF6FEF7FE004C048EF5FEFB5
:1047600060E070E084179507A607B70730F0C8012E
:104770000E946A2181114ACF26CFF8018683978350
:10478000A087B18743CFE114F10429F5D8011A9627
:104790004D915D916D917C911D9753968D919D9159
:1047A0000D90BC91A02D481759076A077B0798F018
:1047B0000E94151E882309F406CF409208025092E9
:1047C000090260920A0270920B028091D307816005
:1047D0008093D30708C041E0C301B2010E94FE1ECE
:1047E000882309F4F0CED501F701E357FB4FCF0141
:1047F000880D991DE817F90719F02D912193FACF2B
:10480000A80CB91C5ECF53968D919D910D90BC91D3
:10481000A02D84179507A607B70740F4F801438B2E
:10482000548B658B768B848180688483D801149641
:104830008C9183FD02C0C10107C0C8010E946D2296
:10484000882309F4C0CEF7CF0F900F900F900F90F0
:10485000DF91CF911F910F91FF90EF90DF90CF905C
:10486000BF90AF909F908F907F906F905F904F9090
:104870003F902F900895CF93DF931F92CDB7DEB76F
:10488000698341E050E0BE016F5F7F4F0E94AB2221
:104890000F90DF91CF910895CF93DF93EC010E94A9
:1048A0006D22882311F01D8281E0DF91CF91089560
:1048B00080E3FB0180833296842F82958F7090E194
:1048C000899F401911244A3014F4405D01C0495CAD
:1048D0004293482F8111F0CF089508950F931F93AD
:1048E000CF93DF93EC0188819981009729F02A8189
:1048F0003B812617370788F48B016F5F7F4F0E943B
:10490000C337009761F0998388831B830A832C81C6
:104910003D81232B11F4FC01108281E001C080E075
:10492000DF91CF911F910F910895CF93DF93EC0109
:1049300088819981009711F00E942B371982188283
:104940001D821C821B821A82DF91CF9108957F9273
:104950008F929F92AF92BF92CF92DF92EF92FF928F
:104960000F931F93CF93DF93CDB7DEB7A6970FB604
:10497000F894DEBF0FBECDBF8C01762E942E852E0F
:1049800020E2B22ECE0101967C01FC012B2D11926A
:104990002A95E9F78BE393E09AA389A38FEF8BA382
:1049A0008CA38DA38EA3680183E4C80ED11C43E4BD
:1049B00050E0BE016F5D7F4FC6010E94A5080196C1
:1049C00009F4BFC081E089838A8386E0A82EAB8288
:1049D0001C82F80164817581868197810E948F36DF
:1049E0006D837E838F83988789869A8680E890E09E
:1049F0009C878B874CE150E0B701C6010E940808F4
:104A0000F7012B2D11922A95E9F7480188E0880ECD
:104A1000911CF401D70101900D92AA94E1F740E1B5
:104A200050E0B701C6010E940808F7011192BA943C
:104A3000E9F796E0A92EB12C40E250E0B701C6019B
:104A40000E940808F1E0AF1AB108B1F783E6898344
:104A500092E89A8393E59B838C8385E38D8381E041
:104A60008E837F829DE3988797E099878A8786E087
:104A7000F401DE011B9601900D928A95E1F78CE01E
:104A8000898B8A8B61EB73E0CE0143960E94E238FA
:104A9000F8014385BE01675E7F4FC8010E9458241C
:104AA000F8014485BE01655E7F4FC8010E9458240D
:104AB000F8014585BE01635E7F4FC8010E945824FE
:104AC0004EE150E0B701C6010E940808F3E07F12F2
:104AD0001EC082E3898384E08A83F80196859B83E4
:104AE00097859C8390899D8391899E8396E39F837C
:104AF0008887828D8987838D8A87848D8B87858D32
:104B00008C874CE050E0B701C6010E94080887E39B
:104B1000898386E08A8391E09B8393E09C838D83E5
:104B20008FE08E838AE38F838BE388878FEF89877B
:104B300049E050E0B701C6010E940808C6010E9482
:104B40005408A6960FB6F894DEBF0FBECDBFDF9116
:104B5000CF911F910F91FF90EF90DF90CF90BF907A
:104B6000AF909F908F907F900895362F90E0FC013A
:104B7000E15FFB4F4491FC01E153FB4F2491FC01A9
:104B8000E757FB4F9491992309F46BC0442309F430
:104B900055C050E0FA013197E231F10508F04EC0FE
:104BA0008827EE58FF4F8F4F0C94873680918000F6
:104BB0008F7707C0809180008F7D03C08091800037
:104BC000877F809380003AC084B58F7702C084B518
:104BD0008F7D84BD33C08091B0008F7703C08091FA
:104BE000B0008F7D8093B00029C0809190008F77B6
:104BF00007C0809190008F7D03C080919000877FD7
:104C0000809390001BC08091A0008F7707C0809197
:104C1000A0008F7D03C08091A000877F8093A000BB
:104C20000DC0809120018F7707C0809120018F7D7A
:104C300003C080912001877F80932001E92FF0E05D
:104C4000EE0FFF1FEB50FC4FA591B4918FB7F89476
:104C5000EC91311103C020952E2301C02E2B2C93F3
:104C60008FBF0895CF93DF9390E0FC01E153FB4F9A
:104C70002491FC01E757FB4F8491882361F190E078
:104C8000880F991FFC01EB5AFB4FC591D491FC0191
:104C9000EB50FC4FA591B491611109C09FB7F894F6
:104CA0008881209582238883EC912E230BC062306B
:104CB00061F49FB7F8943881822F8095832388838D
:104CC000EC912E2B2C939FBF06C08FB7F894E881F0
:104CD0002E2B28838FBFDF91CF910895CF93CFB72D
:104CE000F89480918C04811127C0EEEBF4E084915C
:104CF000E4E0F5E09491E82FF0E0EE0FFF1FEB5AAF
:104D0000FB4FA591B491EC91E92321F461E085E397
:104D10000E94B52561E085E30E9432268CB5806152
:104D20008CBD8CB580648CBD61E084E30E9432262A
:104D300061E083E30E94322680918C048F5F809330
:104D40008C04CFBFCF9108953FB7F8948091880429
:104D500090918904A0918A04B0918B0426B5A89BF8
:104D600005C02F3F19F00196A11DB11D3FBFBA2FFD
:104D7000A92F982F8827820F911DA11DB11DBC015D
:104D8000CD0142E0660F771F881F991F4A95D1F722
:104D900008958F929F92AF92BF92CF92DF92EF923F
:104DA000FF926B017C010E94A4264B015C01C1149F
:104DB000D104E104F104F1F00E94A426DC01CB014E
:104DC00088199909AA09BB09883E9340A105B10534
:104DD00070F321E0C21AD108E108F10888EE880ECC
:104DE00083E0981EA11CB11CC114D104E104F1049C
:104DF00019F7DDCFFF90EF90DF90CF90BF90AF908D
:104E00009F908F9008952FB7F894609184047091CB
:104E1000850480918604909187042FBF08952F9276
:104E20003F924F925F926F927F928F929F92AF923A
:104E3000BF92CF92DF92EF92FF920F931F93CF9387
:104E4000DF93CDB7DEB7E9970FB6F894DEBF0FBE9C
:104E5000CDBF7C011A012B0139010E9403274B01B0
:104E60005C0187010D5B1F4FC8010E9446041816A4
:104E70001906A4F00E940327DC01CB0188199909C7
:104E8000AA09BB09281639064A065B06D8F062E370
:104E900070E080E090E00E94C926E6CF42E250E058
:104EA000BE016F5F7F4FC8010E94D20389818230AB
:104EB00011F080E035C1F80184899589833491052A
:104EC000C1F702C08FEF2CC16D817E818F819885E3
:104ED0000E948F364B015C01F301608371838283F2
:104EE000938346E050E0B701685F7F4FCE014D9657
:104EF0000E94B138892BE9F6F70180819181A28166
:104F0000B38188169906AA06BB0698F2848195811A
:104F1000A681B78188159905AA05BB0550F2898934
:104F20009A89AB89BC8986879787A08BB18B4EEC19
:104F300050E060E070E0C8010E94D2031FA6670144
:104F4000F2E2CF0ED11CC701869699AB88ABF70170
:104F5000BA96FBABEAAB4701FAE18F0E911C8D9636
:104F60009DAB8CABF7017296FFABEEABCD9799AFD3
:104F700088AF37019EE1690E711CF801818D928D19
:104F8000181619060CF0CBC0C8010E94F103833338
:104F9000910509F4A0C0ACF48130910569F11CF4CD
:104FA000892B59F3B1C08330910571F1069709F04F
:104FB000ABC0C8010E94F1035C0144E050E0B301C2
:104FC0002BC08A33910509F45AC034F48533910516
:104FD00059F0C69749F198C08B33910509F465C023
:104FE0008F3F910551F290C0C8010E94F103C801A2
:104FF0000E94F1038FA7C1CFC8010E94F10344E0D2
:1050000050E06EA97FA987C0C8010E94F1035C012E
:1050100044E050E068AD79ADC8010E94D203A5011B
:1050200055274450510975C0C8010E94F1035C0125
:10503000B401CE0189960E94FB1C8BA59CA5ADA551
:10504000BEA5892B8A2B8B2BA1F0ECA9FDA9208072
:10505000318042805380B401CE0183960E94FB1CB4
:105060008DA19EA1AFA1B8A582159305A405B50594
:1050700021F444E050E0B4014EC0A50149C0C8018C
:105080000E94F10344E050E068A979A9C8010E9498
:10509000D203F70166A177A180A591A50E948F3662
:1050A00066A377A380A791A768CFC8010E94F103E8
:1050B00044E050E06AA97BA9C8010E94D203F7012D
:1050C00062A573A584A595A50E948F3662A773A7D4
:1050D00084A795A752CFC8010E94F10344E050E095
:1050E000B601C8010E94D203F70162A173A184A195
:1050F00095A10E948F3662A373A384A395A366A78C
:1051000077A780AB91AB39CFC8010E94F103AC0106
:10511000552760E070E0C8010E94D2032ECF8FA512
:10512000E9960FB6F894DEBF0FBECDBFDF91CF91E9
:105130001F910F91FF90EF90DF90CF90BF90AF90B5
:105140009F908F907F906F905F904F903F902F90A7
:1051500008951F920F920FB60F9211242F933F9331
:105160008F939F93AF93BF93809184049091850414
:10517000A0918604B09187043091830423E0230F2B
:105180002D3720F40196A11DB11D05C026E8230F7F
:105190000296A11DB11D20938304809384049093F3
:1051A0008504A0938604B09387048091880490912D
:1051B0008904A0918A04B0918B040196A11DB11DB0
:1051C0008093880490938904A0938A04B0938B04FD
:1051D000BF91AF919F918F913F912F910F900FBEF3
:1051E0000F901F901895CF93DF93FC012481358198
:1051F000232B69F0C081D181062E000C770BCE01E4
:105200000E94CE38009719F08C1B9D0B02C08FEFC7
:105210009FEFDF91CF910895FC0124813581FB013F
:105220004481558124173507A0F0FC0180819181CC
:10523000009779F0FB01608171816115710549F07A
:10524000241B350B820F931F0E94D93821E0892B34
:1052500009F020E0822F0895FC0124813581232B61
:1052600031F421E061157105A1F0FB0108C0FC01DA
:10527000808191816115710531F421E0FC0180810B
:10528000882339F005C00E94D93821E0892B09F024
:1052900020E0822F0895EF92FF920F931F93CF93F8
:1052A000DF931F921F92CDB7DEB78C0169831A82FC
:1052B000FC01E480F580FFEFEF1AFF0AB7010E94BE
:1052C0006E24882381F0F8012081318184819581C9
:1052D000BE016F5F7F4F820F931F0E94E238F8017B
:1052E000F582E48281E00F900F90DF91CF911F91C2
:1052F0000F91FF90EF900895EF92FF920F931F93FD
:10530000CF93DF93EC018B016115710551F0CB0157
:105310000E9405367C01BC01CE010E946E248111E1
:1053200004C0CE010E94952407C0FD82EC82B80122
:10533000888199810E94FE35CE01DF91CF911F9126
:105340000F91FF90EF900895EF92FF920F931F93AC
:10535000CF93DF938C017B016115710569F0FB012F
:1053600001900020E9F73197EF01C61BD70BBE0172
:105370000E946E24811104C0C8010E94952408C0B7
:10538000F801D583C483B701808191810E94E238FE
:10539000C801DF91CF911F910F91FF90EF90089579
:1053A000FC01808191810C942B37EF92FF920F9337
:1053B0001F93CF93DF93EC01198218821B821A820C
:1053C0001D821C826115710521F18B01FB01019089
:1053D0000020E9F731977F01E61AF70AB7010E942A
:1053E0006E24811109C0CE01DF91CF911F910F91E1
:1053F000FF90EF900C949524FD82EC82B801888197
:105400009981DF91CF911F910F91FF90EF900C94B4
:10541000E238DF91CF911F910F91FF90EF900895A7
:10542000BF92CF92DF92EF92FF920F931F93CF9391
:10543000DF937C016B018A01E9012417350720F411
:10544000812F8901C42FD82F6AEB73E0C7010E9416
:10545000D529D60114968D919C9115970817190797
:10546000D0F48C179D0708F4EC01D601ED91FC9166
:105470001197EC0FFD1FB08010824D915C91BA0125
:10548000600F711FC7010E94A429D601ED91FC9104
:10549000EC0FFD1FB082C701DF91CF911F910F91DB
:1054A000FF90EF90DF90CF90BF9008954F925F9262
:1054B0006F927F92EF92FF920F931F93CF93DF93A0
:1054C000CDB7DEB7A1970FB6F894DEBF0FBECDBF44
:1054D0007C01FA01CB0119A2223008F42AE08E01E6
:1054E0000F5D1F4F422E512C612C712CBF01A30167
:1054F00092010E945636F901CA01015011096A3021
:1055000014F4605D01C0695CD8016C93232B242BDB
:10551000252B61F7B801C7010E94212EA1960FB675
:10552000F894DEBF0FBECDBFDF91CF911F910F91D9
:10553000FF90EF907F906F905F904F90089568EB91
:1055400073E00C94212E0F931F93CF93DF93EC0104
:105550000E941A2E8C01CE010E949F2A800F911F5B
:10556000DF91CF911F910F910895CF93DF93EC01BD
:105570006A8B8091080290910902A0910A02B09171
:105580000B028E879F87A88BB98B80E2689FF00102
:105590001124E357FB4F4489558960E070E0BA015C
:1055A000552744274F8B588F698F7A8F828D938D23
:1055B000A0E0B0E0482B592B6A2B7B2B4F8B588FE8
:1055C000698F7A8F8385887151F4848D958DA68D2E
:1055D000B78D8B8B9C8BAD8BBE8B81E00EC08031E9
:1055E00011F080E015C09E012D5E3F4F8B8D9C8D8C
:1055F0000E946B208823A9F384E08D8381E08C8353
:105600001E821F82188619861A861B861C861D8696
:10561000DF91CF910895AF92BF92CF92DF92EF9238
:10562000FF920F931F93CF93DF93CDB7DEB72B97E6
:105630000FB6F894DEBF0FBECDBF7C01CE01019640
:105640006C01FC0190E28BE08C0D91938E13FDCFE9
:10565000DA0120E037E09D91992339F19E3219F06B
:10566000E5E1F5E00AC03A3009F4AAC028E03AE0E2
:10567000F2CF3196891709F4A3C084918111F9CF33
:10568000321708F49DC08FED890F8E3508F098C051
:1056900081E0820FF601E20FF11D2FE9290F2A3177
:1056A00008F490529083282FD6CF8981803209F454
:1056B00087C08B01FB01838D948DF701948F838FBD
:1056C000FB011682178210861186128613861486B5
:1056D0001586A12CF80182859385A485B58543891B
:1056E00054896589768984179507A607B70708F056
:1056F00067C025E0B695A795979587952A95D1F728
:10570000F82FFF70BF2EF8018581823008F458C051
:10571000C8010E94A50E97FD53C0F80182859385AC
:10572000A485B5854F96A11DB11D82879387A48757
:10573000B587F0E2BF9EC0011124BC0163577B4FC7
:1057400061157105E9F1FB0120812223B9F1253EA4
:10575000E1F04BE050E0C6010E94B138892B09F01E
:10576000B9CF6B2DC7012B960FB6F894DEBF0FBED5
:10577000CDBFDF91CF911F910F91FF90EF90DF9000
:10578000CF90BF90AF900C94B52AA11014C0F70130
:10579000B28A409108025091090260910A02709108
:1057A0000B0246875787608B718BFC01E357FB4FD9
:1057B0008081882329F0AA24A3948CCFAA2039F3CE
:1057C00080E02B960FB6F894DEBF0FBECDBFDF9101
:1057D000CF911F910F91FF90EF90DF90CF90BF90EE
:1057E000AF900895CF93DF93FC012581222311F020
:1057F00080E049C0EC01809155078031C1F482E01E
:105800008583178A108E118E128E80915607909183
:105810005707A0E0B0E025E0880F991FAA1FBB1F23
:105820002A95D1F7838B948BA58BB68B19C08032C8
:10583000F9F683E0858340915807509159076091AC
:105840005A0770915B07478B508F618F728F9F0152
:105850002D5E3F4F8EE397E00E946B20882341F23C
:105860008EE397E09C8F8B8F81E08C831E821F825A
:10587000188619861A861B861C861D861E861F861C
:10588000188A198A1A8ADF91CF9108959091810719
:10589000E0918207F0918307392F309580FF13C084
:1058A000F8942281832F822382838181892B8183B3
:1058B000A3E2B0E01197F1F78281982B928378945C
:1058C00087ED90E012C0F8942281832F8223828397
:1058D0008181892B8183AFEFB0E01197F1F782814D
:1058E000982B928378948FE090E00197F1F70895D8
:1058F00080918107E0918207F0918307F89491816C
:10590000982B91832281982F909529232283A7E0B9
:10591000B0E01197F1F7218192239183A3E2B0E0E7
:105920001197F1F790817894EFECF0E03197F1F76F
:10593000982381E009F480E008958F929F92AF92BE
:10594000BF92CF92DF92EF92FF92CF93DF93C82F57
:1059500082E397E09093D2078093D107CC2369F13B
:10596000C53010F080E00DC140E060E070E0CB0198
:105970000E94FE1E8823B1F320E1C29FC0011124C2
:1059800083589B4FFC01E254FE4F20812F7751F743
:105990003C96408151816281738144365105610595
:1059A000710500F33497C080D180E280F380C11488
:1059B000D104E104F10421F4D5CFC12CD12C76011E
:1059C00040E0C701B6010E94FE1E882359F2809173
:1059D0009804909199048115924021F6A0919D041C
:1059E000AA2309F4BFCF60919B0470919C046115B8
:1059F000710509F4B7CF20919A04222309F4B2CF9C
:105A0000A09350072093420780E030E0E1E0F0E00F
:105A1000C82FAF01082E02C0440F551F0A94E2F7A9
:105A20002417350741F0982F8F5F983089F789E068
:105A300080934B0797CF80934B072091A30430911D
:105A4000A4042115310519F040E050E008C0209170
:105A5000B1043091B2044091B3045091B404209346
:105A60004307309344074093450750934607460148
:105A70005701860E971EA11CB11C8092510790926F
:105A80005207A0925307B0925407E0919E04F09100
:105A90009F04F0935707E0935607B0E00E94433607
:105AA000860E971EA81EB91E80925807909259071D
:105AB000A0925A07B0925B0785E0EE0FFF1F8A9510
:105AC000E1F7E150FE4FEF2FFF27E6958E0E9F1E68
:105AD000A11CB11C80924C0790924D07A0924E07DA
