:100000000C94AB020C94DC020C94DC020C94DC0229
:100010000C94DC020C94DC020C94DC020C94DC02E8
:100020000C94DC020C94DC020C94DC020C94DC02D8
:100030000C94DC020C94DC020C94DC020C94DC02C8
:100040000C94DC020C94DC020C94DC020C94DC02B8
:100050000C94DC020C94DC020C94DC020C94D82C82
:100060000C94DC020C94230C0C94F90B0C94DC0221
:100070000C94DC020C94DC020C94DC020C94DC0288
:100080000C94DC020C94DC020C94DC020C94DC0278
:100090000C94DC020C94DC020C94DC020C94DC0268
:1000A0000C94DC020C94DC020C94DC020C94DC0258
:1000B0000C94DC020C94DC020C94DC020C94DC0248
:1000C0000C94DC020C94DC020C94DC020C94DC0238
:1000D0000C94DC020C94DC020C94DC020C94DC0228
:1000E0000C94DC02DC15DF15CE15D215D6151616CC
:1000F000E315E715ED15F115F515FB15FF150316BD
:10010000161609160D1611160C9409210C94BC1F15
:100110000C94C11B0C947D1E0C94FE270C94611F43
:100120000C94AD1C0C9423070C940F1B0C943C1BDB
:100130000C94A41C0C94CC0B0C94E3150C94581C3C
:100140000C940D280C94341F0C94471B0C94E71549
:100150000C94FF150C942D070C9403160C94270B8C
:100160000C94101C0C940D160C9411160C94811CFC
:100170000C94071B0C9400280C94021C0C946E37F2
:100180000C945C030C94E81D0C941F1C0C94031B32
:100190000C941F1B0C94A3200C94DF150C94E00A04
:1001A0000C949B0A0C94ED150C94C1200C9428031C
:1001B0000C94F1270C9407030C94F3270C94561D10
:1001C0000C940B1B0C94D3280C94E9210C94E3277A
:1001D0000C94820B0C94841B0C94FB150C94161637
:1001E0000C94391C0C94E7270C94780A0C94540353
:1001F0000C94F5150C947A2C0C94A90A0C947C138D
:100200000C9472370C94081D0C9409160C94DC1590
:100210000C9401280C94ED1A0C94F1150C94D6153D
:100220000C94841F0C94D2150C949B1C0C94CD2719
:100230000C94DD050C94F6270C94EC1A0C94870AA8
:100240000C94C91D0C94261B0C9404280C94CE15F8
:1002500070617373776F72640061646D696E0053CF
:1002600044204661696C656400557365726E616D0A
:10027000653A2061646D696E0A50617373776F72BD
:10028000643A2070617373776F7264004545505211
:100290004F4D204552524F523A2056616C7565734E
:1002A00020726573657420746F2064656661756C77
:1002B000740000002200250028002B002E003100D1
:1002C000340002010000050108010B0100000A0BC7
:1002D00002090C0D0E0807030401000000000000D5
:1002E000000000000000000000000000000000000E
:1002F00000000000000000001211100000000000CB
:1003000000000000000000000000000000000000ED
:10031000000000002100240027002A002D003000EA
:10032000330001010000040107010A013C2F687439
:100330006D6C3E003C68313E204572726F72203415
:100340003034202D2046696C65204E6F7420466F36
:10035000756E64203A28203C2F68313E003C68745A
:100360006D6C3E003C21444F435459504520485445
:100370004D4C3E00436F6E74656E742D54797065FC
:100380003A20746578742F68746D6C00485454502A
:100390002F312E3120343034204E6F7420466F754B
:1003A0006E6400485454502F312E312032303020AA
:1003B0004F4B00436F6E6E656374696F6E3A2063D6
:1003C0006C6F736500436F6E74656E742D54797035
:1003D000653A20746578742F68746D6C007C3C3EBF
:1003E0005E2B3D3F2F5B5D3B2C2A225C0048545422
:1003F000502F312E3120323030204F4B00436F6E62
:1004000074656E742D547970653A20746578742F14
:1004100068746D6C00436F6E74656E742D547970E2
:10042000653A20696D6167652F7376672B786D6C0F
:1004300000436F6E74656E742D547970653A207444
:100440006578742F6A6176617363726970740043B2
:100450006F6E74656E742D547970653A207465788A
:10046000742F63737300436F6E74656E742D5479CB
:1004700070653A20746578742F68746D6C003C2F39
:1004800068746D6C3E002054455354204F4B203C03
:100490002F68313E003C68746D6C3E0048545450E7
:1004A0002F312E3120323030204F4B000000200001
:1004B0002300260029002C002F003200000100003C
:1004C00003010601090105050505070508080808D7
:1004D000020202020A0A08080404040401010101DC
:1004E00001010101030303030303030304070707D7
:1004F0000C0C0C0C0C0C0C0C02020202060606067C
:10050000060606060B0B0B0B0B0B0B0B0102102048
:100510002008081020401020408002010201080439
:1005200002010102040810204080804020100804CD
:100530000201800402018040201008040201080426
:10054000020101020408102040800102040810206A
:10055000408072376E3711241FBECFEFD1E2DEBF6D
:10056000CDBF00E00CBF14E0A0E0B2E0E6E2FAE7A5
:1005700000E00BBF02C007900D92A83EB107D9F76B
:1005800029E0A8EEB4E001C01D92AC31B207E1F75A
:1005900012E0CAEAD2E000E006C021970109802FEC
:1005A000FE010E94903AC93AD10780E00807A9F7F6
:1005B0000E94802F0C94013D0C940000FC012081CE
:1005C0002EBDDC0131969C01260F371FE217F30781
:1005D00041F051910DB407FEFDCF4EB55EBD4D9378
:1005E000F5CF61507109FC01E60FF71F0DB407FE4E
:1005F000FDCF8EB580830895E091E904F091EA047F
:1006000090818091E8048095892380830895DC019E
:100610005996ED91FC915A973097B9F08389948956
:10062000A589B6894285538564857585841B950B9C
:10063000A60BB70B811520E89207A105B10538F08C
:100640008FEF9FE7A0E0B0E0089580E090E008958C
:10065000CF93DF931F92CDB7DEB76983DC01ED91B5
:10066000FC910280F381E02D41E050E0BE016F5F1C
:100670007F4F19950F90DF91CF910895CF93DF931E
:10068000EC0160E08E810E94AD1561E08E810E94D8
:10069000AD1560E08E810E94AD158BE891E0019769
:1006A000F1F7DF91CF910895FC01818D928D009734
:1006B00011F00C94A2110895CF93DF93EC01898D72
:1006C0009A8D009739F481E090E09B838A8380E0E3
:1006D00090E00BC0FC01138212820E94EC11E98DA4
:1006E000FA8D22813381232B71F7DF91CF91089509
:1006F000FF920F931F93CF93DF931F921F92CDB75B
:10070000DEB7F82E22E030E0AE014F5F5F4F66E2C9
:1007100070E00E949828098110E0102F00278A813C
:10072000082B22E030E0AE014F5F5F4F66E270E0E1
:100730008F2D0E949828298130E0322F22278A812C
:10074000282B2017310711F08901EBCFC8010F903A
:100750000F90DF91CF911F910F91FF900895CF934C
:10076000C82F462F61E070E00E94CF1E61E070E06C
:100770008C2F0E94ED1E8111F9CFCF910895E09149
:10078000E904F091EA0490818091E804892B808348
:1007900008958EBD00000DB407FEFDCF8EB50895FF
:1007A0008FEF0C94C903AF92BF92CF92DF92EF927A
:1007B000FF920F931F93CF93DF9300D01F92CDB77B
:1007C000DEB78C016B017A018091B2058333F1F4BD
:1007D0005B016801C40ED51E0C151D0509F460C02F
:1007E0000E94FC028FE00E94C903812F0E94C9036E
:1007F000802F0E94C9030F5F1F4F80E00E94C90332
:10080000F50181935F010E94BF03E6CF8433F1F4C9
:100810000E94FC0219830A838F2D8F778B83EC82D1
:1008200064E070E0CE0101960E94DE02A70160E064
:1008300070E0C6010E94D03CE114F10421F0B70140
:10084000C6010E94DE020E94BF032AC00E94FC0271
:100850000F3F110509F020F419820A831B821DC085
:1008600017FD0BC019820A8393E0169507959A9598
:10087000E1F7007E08600B8310C0980186E0369592
:1008800027958A95E1F719830A83207E0115104C7C
:1008900010F4206101C028612B8363E070E0C2CFB7
:1008A000C7010F900F900F900F90DF91CF911F9184
:1008B0000F91FF90EF90DF90CF90BF90AF90089591
:1008C000CF93DF931F92CDB7DEB741E050E0BE017A
:1008D0006F5F7F4F80E090E00E94D30389810F908B
:1008E000DF91CF910895AF92BF92CF92DF92EF92B6
:1008F000FF920F931F93CF93DF93CDB7DEB7289767
:100900000FB6F894DEBF0FBECDBF8C017B016A012C
:100910008091B2058333E1F45801A40EB51E0A1587
:100920001B0509F48CC00E94FC0280EF0E94C903E1
:10093000812F0E94C903802F0E94C9030F5F1F4FA0
:10094000F70181917F010E94C9030E94BF03E7CF95
:10095000843321F50E94FC0219830A838D2D80685F
:100960008B83CC8264E070E0CE0101960E94DE02AF
:1009700087010C0D1D1DE016F10669F0F70181914C
:100980007F010E94C903F7CFB6016D5F7F4FCE0193
:1009900001960E94DE020E94BF0351C00E94FC0229
:1009A0000F3F110509F028F419820A8384E08B8334
:1009B0001DC017FD0BC019820A8393E01695079599
:1009C0009A95E1F7007E0C600B8310C0980186E0D9
:1009D000369527958A95E1F719830A83207E0115BC
:1009E000104C10F4246101C02C612B8386E0C816E2
:1009F000D10498F420E0822F90E08C159D0520F61C
:100A0000E4E0F0E0EC0FFD1FE80FF91FD701A80F9D
:100A1000B91F8C9180832F5FEECF63E070E0CE0131
:100A200001960E94DE0287010C0D1D1DF7018191C8
:100A30007F010E94C903E016F106C1F7ACCFC601E1
:100A400028960FB6F894DEBF0FBECDBFDF91CF91D1
:100A50001F910F91FF90EF90DF90CF90BF90AF90DC
:100A60000895CF93DF931F92CDB7DEB7898341E01E
:100A700050E0BE016F5F7F4F80E090E00E94730402
:100A80000F90DF91CF910895CF93DF9380E80E947C
:100A90003105C4E1D0E00E946004882351F061E098
:100AA00070E080E090E00E94C1162197A1F780E0FD
:100AB00001C081E0DF91CF910895CF92DF92EF9254
:100AC000FF920F931F93CF93DF937C016C0187E01C
:100AD000C80ED11CC0E0D0E0062F10E0B8010C2EEB
:100AE00002C0759567950A94E2F76170F6018191ED
:100AF0006F010E94AD152196C430D10579F7C70169
:100B0000DF91CF911F910F91FF90EF90DF90CF90E9
:100B10000C943E03CF92DF92EF92FF920F931F93BC
:100B2000CF93DF93EC01F62E642F8C810E94AD15DC
:100B30008D818F3F19F060E00E94AD158F850F2DDC
:100B400010E084FF25C06E0187E0C80ED11CE12CA7
:100B5000F12CB8010E2C02C0759567950A94E2F746
:100B60006170F60181916F010E94AD15FFEFEF1AE0
:100B7000FF0A88E0E816F10461F7CE01DF91CF911A
:100B80001F910F91FF90EF90DF90CF900C943E0358
:100B9000B80184E0759567958A95E1F7CE010E94CA
:100BA0005D056F2DCE01DF91CF911F910F91FF90C9
:100BB000EF90DF90CF900C945D0541E00E948A0594
:100BC00081E090E00895EF92FF920F931F93CF93EF
:100BD000DF93EC017B018A011B821A8288EE93E08D
:100BE000A0E0B0E08C839D83AE83BF8381EB92E075
:100BF000998388838DE190E00E949F3A9A8F898F34
:100C0000009779F02DE1F701DC0101900D922A9512
:100C1000E1F74CE050E0B801CE010C960E94F23CA6
:100C2000188EDF91CF911F910F91FF90EF90089553
:100C30002F923F924F925F926F927F928F929F92EC
:100C4000AF92BF92CF92DF92EF92FF920F931F93DA
:100C5000CF93DF931F921F92CDB7DEB7FC01858142
:100C6000882309F4D9C0848180FFD6C021E02A837B
:100C7000438954896589768982859385A485B5855C
:100C8000481759076A077B0709F41A826F013A81EE
:100C9000832F90E0DE0111964D013F01B6E06B0E0F
:100CA000711C892B09F47DC0D6011A964D915D9176
:100CB0006D917C911D975A01B1E0BB22F60125810F
:100CC0001A012B0189E056944794379427948A950A
:100CD000D1F7838D948D223061F4FC01828D938D48
:100CE000A48DB58DBC01CD01620D731D841D951DB4
:100CF00045C0DC0114961C9111501221A114B104BD
:100D0000D1F4111118C0452B462B472B51F4F60195
:100D10008789908DA18DB28D86839783A087B187B7
:100D20000AC0468157816085718593010E941C0F1E
:100D3000882309F471C0F601238D348D8681978153
:100D4000A085B1850297A109B109AC01BD01F901E6
:100D5000058404C0440F551F661F771F0A94D2F7FD
:100D600086859785A089B189840F951FA61FB71F17
:100D7000BC01CD01610F711D811D911DD60114961D
:100D80002C9126FF14C000910802109109022091B5
:100D90000A0230910B02601771078207930751F521
:100DA00006C0FA81FF23C1F1898190E037C040E09D
:100DB0000E94330E882381F1F501E954FA4FD401E2
:100DC000CF010196E817F90719F021912D93FACF79
:100DD000EFEF8E1A9E0AF60182859385A485B5856C
:100DE0000196A11DB11D82879387A487B58780E0F6
:100DF00090E057CF740101E010E09501AB01BC0118
:100E00008091B4059091B5050E94F90C882321F0DA
:100E1000BFEF8B1A9B0ADFCF8FEF9FEF0F900F90E2
:100E2000DF91CF911F910F91FF90EF90DF90CF90C6
:100E3000BF90AF909F908F907F906F905F904F90FA
:100E40003F902F900895FC01818D928D009711F0B5
:100E50000C9418068FEF9FEF08950F931F93CF9375
:100E6000DF93FC01818D928D0097B9F0EF010E9414
:100E700018068C010F3F8FEF180791F0898D9A8D1E
:100E8000FC0142855385648575854150510961098E
:100E900071090E940910C80105C080E090E002C0FD
:100EA0008FEF9FEFDF91CF911F910F9108957F9268
:100EB0008F929F92AF92BF92CF92DF92EF92FF926A
:100EC0000F931F93CF93DF931F921F92CDB7DEB77F
:100ED000782E7B015A01690122E030E0AE014F5FBC
:100EE0005F4F64E270E00E949828098110E0102FA3
:100EF00000278A81082B0E0D1F1DC80197702091B5
:100F0000B205E72CF12CF701233311F4389601C018
:100F10007096FE2FEE27FF0FFF0FFF0FE80FF91F50
:100F2000273321F4A601B501CF0122C09C012C0D6D
:100F30003D1D21303840B0F360E078E04B01881A65
:100F4000990AA401B501CF010E947304A6014819B2
:100F50005909B501680D791D8091B205833341F5BA
:100F600088E0E80EF11C9E2D990F990F990F80E0F3
:100F70000E9473040C0D1D1D19830A8322E030E0CA
:100F8000AE014F5F5F4F64E270E0872D0E943F1E0D
:100F90000F900F90DF91CF911F910F91FF90EF90E5
:100FA000DF90CF90BF90AF909F908F907F900895EB
:100FB00080E1E80EF11CD7CFFF920F931F93CF93E0
:100FC000DF931F921F92CDB7DEB7F82E22E030E0FC
:100FD000AE014F5F5F4F60E270E00E949828098188
:100FE00010E0102F00278A81082B22E030E0AE01AC
:100FF0004F5F5F4F60E270E08F2D0E94982829813B
:1010000030E0322F22278A81282B2017310711F058
:101010008901EBCF87E0F89EF0011124E659FA4FE1
:1010200015830483C8010F900F90DF91CF911F911A
:101030000F91FF900895FF920F931F93CF93DF932B
:1010400000D01F92CDB7DEB7F82E00E021E040E8D7
:101050005FE965ED70E0CE0101960E94AE288981BE
:101060009A810E94AB288F2D0E94DC07182F8F2DAC
:101070009C830E940B1F8B830E94AA288B819C81DA
:10108000873129F08C3119F080E090E001C0812F88
:101090000F900F900F900F90DF91CF911F910F91B4
:1010A000FF900895AF92BF92CF92DF92EF92FF929E
:1010B0000F931F93CF93DF931F921F92CDB7DEB78D
:1010C000182F6B017A014130584018F0E12C88E06C
:1010D000F82E00E021E040E85FE965ED70E0CE0128
:1010E00001960E94AE2889819A810E94AB28812FA7
:1010F0000E94DC075C01812F0E940B1F082F0E94B9
:10110000AA28073111F00C3121F4AE14BF0408F302
:1011100002C0E12CF12C00E021E040E85FE965ED40
:1011200070E0CE0101960E94AE2889819A810E94CA
:10113000AB289701A60160E070E0812F0E9457075D
:1011400060E270E0812F0E94AF0362E070E0812FC7
:101150000E94ED1E84FD1BC0812F0E940B1F811178
:1011600005C00E94AA2880E090E01AC00E94AA2828
:1011700000E021E040E85FE965ED70E0CE01019616
:101180000E94AE2889819A810E94AB28DECF40E17F
:1011900062E070E0812F0E94CF1E0E94AA28C70142
:1011A0000F900F90DF91CF911F910F91FF90EF90D3
:1011B000DF90CF90BF90AF9008950F931F93CF9380
:1011C000DF931F921F92CDB7DEB7182F00E021E00A
:1011D00040E85FE965ED70E0CE0101960E94AE281F
:1011E00089819A810E94AB28812F0E94311E27E0BD
:1011F000129FF0011124E659FA4F22813381377092
:1012000041E050E0BE016F5F7F4F820F931F0E944D
:10121000D3030E94AA2889810F900F90DF91CF916C
:101220001F910F910895EF92FF920F931F93CF9309
:10123000DF931F921F92CDB7DEB7482F87E0489FFC
:1012400090011124F901E659FA4F7F0180819181C3
:101250000097E9F4142F00E021E040E85FE965ED34
:1012600070E0CE0101960E94AE2889819A810E9489
:10127000AB28812F0E9478038C010E94AA28F701D5
:1012800086819801281B3109C901318320830F9081
:101290000F90DF91CF911F910F91FF90EF900895E4
:1012A0004F925F926F927F928F929F92AF92BF9276
:1012B000CF92DF92EF92FF920F931F93CF93DF9322
:1012C0001F921F92CDB7DEB7182F4B013A01A82EFF
:1012D000B12C27E0829FC0011124AC0146595A4F1E
:1012E0006A01FA01E080F18000E021E040E85FE976
:1012F00065ED70E0CE0101960E94AE2889819A8149
:101300000E94AB28E614F70454F4812F0E9478035E
:10131000F60126817C01E21AF108F182E082E114F3
:10132000F104A1F4812F0E940B1F843109F480C0C5
:10133000882309F47DC021E030E08C3111F420E0F5
:1013400030E0EE24FF24E21AF30A72C06E147F0428
:101350000CF4730187E08A9DF0018B9DF00D112440
:10136000E659FA4FC280D3808114910451F12601CD
:10137000F7E05F22812F0E94311E840D951D209180
:10138000B205273311F4A70119C09701240D351DAB
:1013900021303840C0F320E038E039016418750886
:1013A000A301B4010E94D303860C971C9701261950
:1013B00037093901812F0E94311EA301B4010E9417
:1013C000D303CE0CDF1C87E08A9DF0018B9DF00DCE
:1013D0001124E659FA4FD382C282808191818E19FD
:1013E0009F09918380832681A701420F511D4A3FA7
:1013F000510510F4892BD9F487E08A9DF0018B9D6B
:10140000F00D1124E659FA4F1682D982CA8222E0E1
:1014100030E0AE014F5F5F4F68E270E0812F0E94C5
:101420003F1E60E470E0812F0E94AF0301C046833D
:101430000E94AA28C7010F900F90DF91CF911F91B2
:101440000F91FF90EF90DF90CF90BF90AF909F9063
:101450008F907F906F905F904F9008950F931F93A0
:10146000CF93DF931F921F92CDB7DEB7182F00E006
:1014700021E040E85FE965ED70E0CE0101960E9451
:10148000AE2889819A810E94AB2868E070E0812FA4
:101490000E94AF030E94AA280F900F90DF91CF9176
:1014A0001F910F9108950F931F93CF93DF931F9276
:1014B0001F92CDB7DEB7182F00E021E040E85FE9CA
:1014C00065ED70E0CE0101960E94AE2889819A8177
:1014D0000E94AB2860E170E0812F0E94AF030E9460
:1014E000AA280F900F90DF91CF911F910F9108952F
:1014F000FC01538D448D252F30E0842F90E0821B1A
:10150000930B541710F0CF96089501970895FC019E
:10151000918D828D981761F0828DDF01A80FB11D2A
:101520005D968C91928D9F5F9F73928F90E008954E
:101530008FEF9FEF0895FC01918D828D981731F008
:10154000828DE80FF11D858D90E008958FEF9FEF5C
:101550000895FC01918D228D892F90E0805C9F4F32
:10156000821B91098F73992708958DEB97E00E9454
:10157000A90A21E0892B09F420E0822F0895FC01BB
:10158000848DDF01A80FB11DA35ABF4F2C91848D0C
:1015900090E001968F739927848FA689B7892C9341
:1015A000A089B1898C9180648C93938D848D9813DC
:1015B00006C00288F389E02D80818F7D80830895A5
:1015C000EF92FF920F931F93CF93DF93EC0181E093
:1015D000888F9B8D8C8D981305C0E889F98980814F
:1015E00085FD24C0F62E0B8D10E00F5F1F4F0F738B
:1015F0001127E02E8C8DE8120CC00FB607FCFACF35
:10160000E889F989808185FFF5CFCE010E94BF0A64
:10161000F1CF8B8DFE01E80FF11DE35AFF4FF082F1
:101620000B8FEA89FB898081806207C0EE89FF8980
:101630006083E889F98980818064808381E090E01B
:10164000DF91CF911F910F91FF90EF900895CF936D
:10165000DF93EC01888D8823C9F0EA89FB898081BA
:1016600085FD05C0A889B9898C9186FD0FC00FB68C
:1016700007FCF5CF808185FFF2CFA889B9898C91CD
:1016800085FFEDCFCE010E94BF0AE7CFDF91CF915A
:10169000089580E090E0892B21F00E94B50A811125
:1016A00025C080E090E0892B41F080E090E0892B1C
:1016B00021F00E94000081111CC080E090E0892B85
:1016C00041F080E090E0892B21F00E940000811120
:1016D00013C080E090E0892BA1F080E090E0892B9E
:1016E00081F00E94000081110AC008950E9400004C
:1016F000D8CF0E940000E1CF0E940000EACF0C94F6
:10170000000008958F929F92AF92BF92CF92DF9286
:10171000EF92FF920F931F93CF93DF937C01EB0126
:101720006C0182E0C80ED11C4701E5E08E0E911CD1
:1017300000E010E0F60141916F0150E060E070E0E0
:101740002AE0CE010E94DC2E5C01E881F981019043
:10175000F081E02D6EE2CE0119958A0D9B1D080FD8
:10176000191FC814D90431F7F701458150E060E032
:1017700070E02AE0CE010E94DC2E800F911FDF91E5
:10178000CF911F910F91FF90EF90DF90CF90BF907E
:10179000AF909F908F9008950E94B53C0F931F9338
:1017A000CF93DF93EB010E94CC2C8B010E94D003DE
:1017B0008F3F49F00E94CC2C601B710B6C177D078A
:1017C000A8F380E001C081E0DF91CF911F910F91DC
:1017D000089529E433E0FC0131832083FB0140813B
:1017E000518162817381FC014283538364837583D9
:1017F00008951F920F920FB60F9211240BB60F92FD
:101800002F933F934F935F936F937F938F939F9308
:10181000AF93BF93EF93FF938DEB97E00E94BF0AC6
:10182000FF91EF91BF91AF919F918F917F916F91B8
:101830005F914F913F912F910F900BBE0F900FBE74
:101840000F901F9018951F920F920FB60F921124B0
:101850000BB60F922F938F939F93EF93FF93E0918B
:10186000CD07F091CE078081E091D307F091D407A6
:1018700082FD12C090818091D6078F5F8F73209177
:10188000D707821751F0E091D607F0E0E354F84F04
:10189000958F8093D60701C08081FF91EF919F9132
:1018A0008F912F910F900BBE0F900FBE0F901F9036
:1018B0001895CF93DF93EC0180916105811109C0E8
:1018C00081E08093610580915A0890915B080E94A5
:1018D000AB2860E08C81DF91CF910C94AD1561E075
:1018E000FC0184810E94AD1580916105882321F05F
:1018F000109261050C94AA280895CF93DF93EC0110
:101900008E81882389F08F8198859C012F5F3F4FBE
:1019100038872F838230924018F40E94D003F3CF8F
:10192000CE010E946F0C1E82DF91CF910895CF925D
:10193000DF92FF920F931F93CF93DF9300D01F92FC
:10194000CDB7DEB76C01F62E29833A834B835C83D7
:101950000E947D0CC6010E94590C6CE271E0C60128
:101960000E94CE0B8F2D80640E94C90308E110E015
:101970005C814B813A812981DA01C901002E04C0C2
:10198000B695A795979587950A94D2F729833A83B8
:101990004B835C830E94C9030850110929813A8155
:1019A0004B815C81083F8FEF180731F7FF2029F04A
:1019B000E8E0FE1204C087E803C085E901C08FEFAC
:1019C0000E94C90310E00E94D003F601828787FFBE
:1019D00004C01F3F11F01F5FF6CF0F900F900F90C4
:1019E0000F90DF91CF911F910F91FF90DF90CF90DB
:1019F0000895AF92BF92CF92DF92EF92FF920F9332
:101A00001F93CF93DF93EC016901C801820F931FED
:101A10008130924008F070C08E81882371F08881F7
:101A20009981AA81BB81481759076A077B0729F466
:101A30008F819885C816D906B0F5488359836A8383
:101A40007B838B85833039F089E0440F551F661FF7
:101A5000771F8A95D1F79A01AB0161E1CE010E940F
:101A6000970C882319F083E08D8346C00E94CC2C0C
:101A70005B010E94D0038A878F3F49F40E94CC2CDF
:101A80006A197B096D327140A0F38FE003C08E3F6D
:101A900031F08DE08D83CE010E946F0C2DC0188631
:101AA0001F8281E08E838F8198858C159D0540F47F
:101AB0000E94D0038F819885019698878F83F3CFFA
:101AC0006701E00EF11ECE14DF0431F00E94D00356
:101AD000F60181936F01F7CF8F819885080F191F49
:101AE00018870F838985882319F00115124048F063
:101AF000CE010E947D0C05C0CE010E946F0C80E0DB
:101B000001C081E0DF91CF911F910F91FF90EF9085
:101B1000DF90CF90BF90AF900895EF92FF920F9318
:101B20001F93CF93DF93EC017901411551056105B6
:101B3000710511F482E13CC08B85833039F089E076
:101B4000440F551F661F771F8A95D1F79A01AB0185
:101B500068E1CE010E94970C882311F084E028C030
:101B60008EEF0E94C90387018EEFF81AF801819168
:101B70008F010E94C9030E151F05C1F78FEF0E9448
:101B8000C9038FEF0E94C9030E94D0038A878F7117
:101B9000853031F081E18D83CE010E946F0C09C048
:101BA00068E572E0CE010E94CE0B811107C085E18D
:101BB0008D83CE010E946F0C80E013C020E030E0E6
:101BC000A9016DE0CE010E94970C811104C00E9412
:101BD000D003882311F084E1EBCFCE010E946F0C7B
:101BE00081E0DF91CF911F910F91FF90EF900895C9
:101BF0008091B6058823A9F140910802509109020D
:101C000060910A0270910B0227EB35E08091B405D8
:101C10009091B5050E948D0D811102C080E008955C
:101C2000409162055091630560916405709165056E
:101C3000411551056105710591F027EB35E0809163
:101C4000B4059091B5050E948D0D882339F310924B
:101C5000620510926305109264051092650510925A
:101C6000B60581E008958F929F92AF92BF92EF9256
:101C7000FF920F931F93CF934B015C01C42F809170
:101C8000080290910902A0910A02B0910B028815F6
:101C90009905AA05BB0501F10E94F80D811102C04A
:101CA00080E020C087EBE82E85E0F82E00E012E00F
:101CB00020E030E0B501A4018091B4059091B50514
:101CC0000E94F90C882361F3809208029092090225
:101CD000A0920A02B0920B028091B605C82BC09365
:101CE000B60581E0CF911F910F91FF90EF90BF90CB
:101CF000AF909F908F9008954F925F926F927F92D6
:101D00008F929F92AF92BF92CF92DF92EF92FF920B
:101D10000F931F93CF93DF93EC016A017B0128019E
:101D20003901423051056105710510F480E073C03E
:101D300089859A85AB85BC850196A11DB11D841747
:101D40009507A607B70790F38B889C88AD88BE8857
:101D50008F89803129F4BB27AF2D9E2D8D2D09C091
:101D6000DB01CA0147E0B695A795979587954A95F7
:101D7000D1F7880E991EAA1EBB1E80910802909171
:101D80000902A0910A02B0910B0288169906AA06D0
:101D9000BB0679F48F898031A1F4DD24EE24FF2481
:101DA000C601880F991FFC01E954FA4F5182408205
:101DB00019C040E0C501B4010E94330E8111EACF81
:101DC000B5CFE894C7F8DD24EE24FF24C601880FC0
:101DD000991F880F991FFC01E954FA4F40825182E4
:101DE000628273828091B60581608093B6058A898C
:101DF000823080F08D819E81AF81B885880E991EDA
:101E0000AA1EBB1E8092620590926305A092640593
:101E1000B092650581E0DF91CF911F910F91FF9006
:101E2000EF90DF90CF90BF90AF909F908F907F907A
:101E30006F905F904F9008958F929F92AF92BF9254
:101E4000CF92DF92EF92FF920F931F93CF93DF9386
:101E5000FC0181859285A385B4850196A11DB11DE4
:101E600084179507A607B70710F480E05CC0838944
:101E70009489A589B689C789C03129F4852E962E03
:101E8000A72EBB2409C04A015B01C7E0B694A79402
:101E900097948794CA95D1F7E9016A017B018F0174
:101EA000BC01CD01680D791D8A1D9B1D8090080223
:101EB00090900902A0900A02B0900B026815790573
:101EC0008A059B0599F4F80187898031A9F4B70147
:101ED000A601552766277727440F551FFA01E954B5
:101EE000FA4F80819181A0E0B0E018C040E00E94EC
:101EF000330E8111E8CFB9CFB701A6014F7755272F
:101F000066277727440F551F440F551FFA01E954E0
:101F1000FA4F80819181A281B381BF7088839983B8
:101F2000AA83BB8381E0DF91CF911F910F91FF9036
:101F3000EF90DF90CF90BF90AF909F908F900895DB
:101F40004F925F926F927F92AF92BF92CF92DF9249
:101F5000EF92FF920F931F93CF93DF9300D01F92C6
:101F6000CDB7DEB78C0149835A836B837C835901DB
:101F7000C12CD12C7601412C82E0582E612C712C81
:101F800049815A816B817C819E012F5F3F4FC8013F
:101F90000E941C0F882351F1D301C201F80105846E
:101FA00004C0880F991FAA1FBB1F0A94D2F7C80E3E
:101FB000D91EEA1EFB1E49815A816B817C8187896B
:101FC000803129F088EF9FEFAFEFBFE004C088EFCA
:101FD0009FEFA0E0B0E0481759076A077B0780F23F
:101FE000F501C082D182E282F38281E00F900F90EE
:101FF0000F900F90DF91CF911F910F91FF90EF9075
:10200000DF90CF90BF90AF907F906F905F904F9098
:1020100008958F929F92AF92BF92CF92DF92EF92EC
:10202000FF920F931F93CF93DF93EC018D8181116A
:1020300002C080E077C00B891C892D893E89041776
:10204000150726073707A8F36A017B01823029F4B8
:10205000CA86DB86EC86FD860DC0C114D104E1047E
:10206000F10451F41E821F82188619861A861B8677
:102070001C861D8681E056C08A849B84AC84BD8406
:10208000EB8DFC8D258530E0275F3F4FB501A40126
:102090004150510961097109022E04C07695679576
:1020A000579547950A94D2F7D701C6010197A10920
:1020B000B10904C0B695A795979587952A95D2F74B
:1020C00084179507A607B70720F089288A288B2848
:1020D00049F44F89588D698D7A8D4E835F83688767
:1020E000798704C0841B950BA60BB70B4C015D01CF
:1020F0008E010A5F1F4F81149104A104B10409F4F9
:10210000A7CF4E815F816885798598018B8D9C8DE5
:102110000E941C0F91E0891A9108A108B108811151
:10212000EACF87CFDF91CF911F910F91FF90EF9072
:10213000DF90CF90BF90AF909F908F9008953F9287
:102140004F925F926F927F928F929F92AF92BF92C7
:10215000CF92DF92EF92FF920F931F93CF93DF9373
:10216000CDB7DEB72C970FB6F894DEBF0FBECDBF4C
:102170005C01DC015B968D909C905C971696CD90EF
:10218000DD90ED90FC901997C114D104E104F104A5
:1021900039F0BFEFCB1ADB0AEB0AFB0A312C07C080
:1021A000F401C080D180E280F38033243394F401C1
:1021B00081859285A385B4859C01AD012F5F3F4F3A
:1021C0004F4F5F4F29873A874B875C87260137013E
:1021D0001D821E821F821886F40181859285A38547
:1021E000B4852D813E814F815885281739074A07CC
:1021F0005B0708F063C089859A85AB85BC858C1523
:102200009D05AE05BF0550F482E0C82ED12CE12C0F
:10221000F12C92E0492E512C612C712C9E012F5FE4
:102220003F4FB701A601C4010E941C0F882309F487
:1022300045C089819A81AB81BC81892B8A2B8B2BEC
:1022400041F0260137019FEF491A590A690A790AB4
:1022500005C0C414D504E604F70491F02D813E8135
:102260004F8158852F5F3F4F4F4F5F4F2D833E83E8
:102270004F8358873FEFC31AD30AE30AF30AACCF60
:102280000FEF1FEF2FEF3FE0B301A201C4010E9447
:102290007C0E882399F0D50116964D915D916D9134
:1022A0007C911997411551056105710549F093011C
:1022B0008201C4010E947C0E811102C080E02AC00C
:1022C000D50116964D925D926D927C9219973320AE
:1022D00051F0D301C2010196A11DB11DF40180830B
:1022E0009183A283B383F5018789908DA18DB28DEF
:1022F000892B8A2B8B2B69F4D50157964D925D92D1
:102300006D927C925A9714968C91149780681496CB
:102310008C9381E02C960FB6F894DEBF0FBECDBF34
:10232000DF91CF911F910F91FF90EF90DF90CF90B1
:10233000BF90AF909F908F907F906F905F904F90E5
:102340003F900895CF93DF93EC018D818823A1F115
:102350008C8187FF2DC06E857F858889998941E0B2
:102360000E94330E882341F1EA8980E2E89FF00160
:102370001124DF01A954BA4F1097F1F08D818230FA
:1023800050F44B895C896D897E895C964D935D9391
:102390006D937C935F978F89988DA98DBA8DE95441
:1023A000FA4F938F828FB58BA48B8C818F778C8320
:1023B000DF91CF910C94F80D80E0DF91CF910895DB
:1023C000CF93DF93EC010E94A211882311F01D82AC
:1023D00081E0DF91CF9108952F923F924F925F92CB
:1023E0006F927F928F929F92AF92BF92CF92DF9225
:1023F000EF92FF920F931F93CF93DF9300D01F9222
:10240000CDB7DEB78C015B011A01DC0115968C910A
:1024100015978130C9F414968C9181FF15C082FF05
:102420001BC0F80143895489658976898285938523
:10243000A485B58584179507A607B70769F0C80175
:102440000E940910811108C081E090E0F801938397
:10245000828380E090E039C1610183C0D8015B963E
:102460008D919C915C97FC01248121502A013B01B4
:1024700039E076946794579447943A95D1F7722E41
:1024800074207A01F1E0FF22772009F476C080E021
:1024900092E08E199F0946018C159D0508F44C01A8
:1024A000D8015B962D913C915C9716968D919D91EC
:1024B0000D90BC91A02D0297A109B109F9010584E5
:1024C00004C0880F991FAA1FBB1F0A94D2F7468524
:1024D000578560897189840F951FA61FB71F9C01BE
:1024E000AD01270D311D411D511D29013A018114F6
:1024F00032E0930609F088C08091080290910902A9
:10250000A0910A02B0910B0284159505A605B705A6
:1025100059F48FEF9FEFDC0180930802909309023A
:10252000A0930A02B0930B029501B301A20180911E
:10253000B4059091B5050E948D0D882309F484CFD0
:102540009EEFB91AC818D908F80182859385A48529
:10255000B585880D991DA11DB11D82879387A4871C
:10256000B587D8011A964D915D916D917C911D971B
:10257000C114D10409F072CF87C0E114F10409F04D
:1025800086CF16964D915D916D917C91199741156D
:1025900051056105710559F457968D919D910D90E6
:1025A000BC91A02D0097A105B10541F521C09E0168
:1025B0002F5F3F4F0E941C0F882309F44BCF898166
:1025C0009A81AB81BC81F801238D348DF901278973
:1025D000203129F048EF5FEF6FEF7FE004C048EF54
:1025E0005FEF60E070E084179507A607B70730F04B
:1025F000C8010E949F1081114ACF26CFF80186831F
:102600009783A087B18743CFE114F10429F5D8015E
:102610001A964D915D916D917C911D9753968D9178
:102620009D910D90BC91A02D481759076A077B0713
:1026300098F00E94F80D882309F406CF4092080212
:102640005092090260920A0270920B028091B605C4
:1026500081608093B60508C041E0C301B2010E94C9
:10266000330E882309F4F0CED501F701E954FA4F6F
:10267000CF01880D991DE817F90719F02D912193C5
:10268000FACFA80CB91C5ECF53968D919D910D90F9
:10269000BC91A02D84179507A607B70740F4F80151
:1026A000438B548B658B768B848180688483D801BF
:1026B00014968C9183FD02C0C10107C0C8010E941D
:1026C000A211882309F4C0CEF7CF0F900F900F907E
:1026D0000F90DF91CF911F910F91FF90EF90DF90BE
:1026E000CF90BF90AF909F908F907F906F905F90B2
:1026F0004F903F902F900895CF93DF931F92CDB7C7
:10270000DEB7698341E050E0BE016F5F7F4F0E94FA
:10271000EC110F90DF91CF91089580E3FB0180834E
:102720003296842F82958F7090E1899F40191124F1
:102730004A3014F4405D01C0495C4293482F811136
:10274000F0CF08955F926F927F928F929F92AF9297
:10275000BF92CF92DF92EF92FF920F931F93CF938E
:10276000DF93CDB7DEB760970FB6F894DEBF0FBE2C
:10277000CDBF7C019091B205992309F4C9C0933370
:1027800019F454E0552E02C048E0542E5B0100E0DD
:1027900021E040E85FE965ED70E0CE0101966C0153
:1027A0000E94AE2889819A810E94AB284601360199
:1027B0000C2D162D1C19812F0E940B1FF3018193E4
:1027C0003F018823E1F08E2F8C19851590F3882D19
:1027D000801BF40191914F019D3161F0983151F0CE
:1027E0009A51923038F08E2F801B851580F30E940D
:1027F000AA288EC0182F60E170E00E94AF03C12E9E
:10280000D12CF601EE0FFF1FEE55FA4F1182108208
:1028100083EE93E00197F1F742E860E070E0812FEA
:102820000E94CF1E4FEF62E070E0812F0E94CF1E0A
:10283000A114B10411F0B50113C08091060290916A
:10284000070201968115F0EC9F0710F480E090ECF0
:10285000909307028093060260910602709107022E
:10286000812F0E94671E86E0E9E7F2E0DE011996FB
:1028700001900D928A95E1F7F70183818F778C871C
:1028800084818D8785818E87A7014E5F5F4F24E00D
:1028900030E06CE070E0812F0E943F1EB501812F77
:1028A0000E94511E26E030E0AE01475F5F4F66E0B8
:1028B00070E0812F0E943F1E61E070E0812F0E9436
:1028C000AF0327E02C9DC0012D9D900D11249C018C
:1028D00026593A4F7901F9011182108222E030E045
:1028E000AE01415F5F4F68E270E0812F0E9498283F
:1028F0008F8590E0982F88272889822BF701938372
:1029000082831682158214820E94AA28812F01C018
:1029100088E060960FB6F894DEBF0FBECDBFDF91A2
:10292000CF911F910F91FF90EF90DF90CF90BF90CC
:10293000AF909F908F907F906F905F9008957F925F
:102940008F929F92AF92BF92CF92DF92EF92FF92BF
:102950000F931F93CF93DF93CDB7DEB7A6970FB634
:10296000F894DEBF0FBECDBF8C01762E942E852E3F
:1029700020E2B22ECE0101967C01FC012B2D11929A
:102980002A95E9F789E493E09AA389A38FEF8BA3B3
:102990008CA38DA38EA3680183E4C80ED11C43E4ED
:1029A00050E0BE016F5D7F4FC6010E947D1E019603
:1029B00009F4BFC081E089838A8386E0A82EAB82B8
:1029C0001C82F80164817581868197810E94983A02
:1029D0006D837E838F83988789869A8680E890E0CE
:1029E0009C878B874CE150E0B701C6010E94081D0F
:1029F000F7012B2D11922A95E9F7480188E0880EFE
:102A0000911CF401D70101900D92AA94E1F740E1E5
:102A100050E0B701C6010E94081DF7011192BA9457
:102A2000E9F796E0A92EB12C40E250E0B701C601CB
:102A30000E94081DF1E0AF1AB108B1F783E689835F
:102A400092E89A8393E59B838C8385E38D8381E071
:102A50008E837F829DE3988797E099878A8786E0B7
:102A6000F401DE011B9601900D928A95E1F78CE04E
:102A7000898B8A8B66E274E0CE0143960E94EB3C20
:102A8000F8014385BE01675E7F4FC8010E948D1328
:102A9000F8014485BE01655E7F4FC8010E948D1319
:102AA000F8014585BE01635E7F4FC8010E948D130A
:102AB0004EE150E0B701C6010E94081DF3E07F120D
:102AC0001EC082E3898384E08A83F80196859B8314
:102AD00097859C8390899D8391899E8396E39F83AC
:102AE0008887828D8987838D8A87848D8B87858D62
:102AF0008C874CE050E0B701C6010E94081D87E3B7
:102B0000898386E08A8391E09B8393E09C838D8315
:102B10008FE08E838AE38F838BE388878FEF8987AB
:102B200049E050E0B701C6010E94081DC6010E949D
:102B30000921A6960FB6F894DEBF0FBECDBFDF9178
:102B4000CF911F910F91FF90EF90DF90CF90BF90AA
:102B5000AF909F908F907F900895362F90E0FC016A
:102B6000E453FD4F4491FC01E45FFA4F2491FC01D2
:102B7000EA53FB4F9491992309F46BC0442309F461
:102B800055C050E0FA013197E231F10508F04EC02E
:102B90008827EE58FF4F8F4F0C94903A8091800019
:102BA0008F7707C0809180008F7D03C08091800067
:102BB000877F809380003AC084B58F7702C084B548
:102BC0008F7D84BD33C08091B0008F7703C080912A
:102BD000B0008F7D8093B00029C0809190008F77E6
:102BE00007C0809190008F7D03C080919000877F07
:102BF000809390001BC08091A0008F7707C08091C8
:102C0000A0008F7D03C08091A000877F8093A000EB
:102C10000DC0809120018F7707C0809120018F7DAA
:102C200003C080912001877F80932001E92FF0E08D
:102C3000EE0FFF1FEE54FD4FA591B4918FB7F8949E
:102C4000EC91311103C020952E2301C02E2B2C9323
:102C50008FBF0895CF93DF9390E0FC01E45FFA4FBC
:102C60002491FC01EA53FB4F8491882361F190E0A9
:102C7000880F991FFC01EE5EFC4FC591D491FC01B9
:102C8000EE54FD4FA591B491611109C09FB7F8941E
:102C90008881209582238883EC912E230BC062309B
:102CA00061F49FB7F8943881822F809583238883BD
:102CB000EC912E2B2C939FBF06C08FB7F894E88120
:102CC0002E2B28838FBFDF91CF910895CF93CFB75D
:102CD000F8948091B305811127C0EBEFF4E0849163
:102CE000E1E4F5E09491E82FF0E0EE0FFF1FEE5ED7
:102CF000FC4FA591B491EC91E92321F461E085E3C7
:102D00000E94AD1561E085E30E942A168CB58061B2
:102D10008CBD8CB580648CBD61E084E30E942A1672
:102D200061E083E30E942A168091B3058F5F809350
:102D3000B305CFBFCF9108953FB7F8948091660552
:102D400090916705A0916805B091690526B5A89B8B
:102D500005C02F3F19F00196A11DB11D3FBFBA2F2D
:102D6000A92F982F8827820F911DA11DB11DBC018D
:102D7000CD0142E0660F771F881F991F4A95D1F752
:102D800008958F929F92AF92BF92CF92DF92EF926F
:102D9000FF926B017C010E949C164B015C01C114E7
:102DA000D104E104F104F1F00E949C16DC01CB0196
:102DB00088199909AA09BB09883E9340A105B10564
:102DC00070F321E0C21AD108E108F10888EE880EFC
:102DD00083E0981EA11CB11CC114D104E104F104CC
:102DE00019F7DDCFFF90EF90DF90CF90BF90AF90BD
:102DF0009F908F9008952F923F924F925F926F9283
:102E00007F928F929F92AF92BF92CF92DF92EF927A
:102E1000FF920F931F93CF93DF93CDB7DEB76597E4
:102E20000FB6F894DEBF0FBECDBF7C016B013A0137
:102E3000FB0120E080E090E06AE03191332309F16A
:102E400040ED430F4A3080F4689FA001699F500D08
:102E50001124CA01C097830F911D37FD9A958F3FAA
:102E6000910559F350F313C03E3289F4233079F0C1
:102E7000D301A20FB11D12968C932F5F80E090E0DA
:102E8000DCCF233021F4F301858381E021C0F701F9
:102E900042815381648175818091B9079091BA070D
:102EA000A091BB07B091BC07481759076A077B0779
:102EB00009F493C10E94CC2C8701085F1F4F6F70EB
:102EC00077277C5FC8010E94A320813019F080E041
:102ED00090E0CFC189E493E09A838983F7018281EE
:102EE0009381A481B5818B839C83AD83BE8345E3AD
:102EF00050E0BE016F5F7F4FC8010E947D1E892B8D
:102F000019F4C12CD12C64C10E94CC2CF701778319
:102F1000668342E050E0B7016A5F7F4FC8010E94BC
:102F2000081D81E090E09A83898342E050E0BE0171
:102F30006F5F7F4FC8010E94081D80E091E09A8377
:102F4000898342E050E0BE016F5F7F4FC8010E945D
:102F5000081D1A82198242E050E0BE016F5F7F4F68
:102F6000C8010E94081D42E050E0BE016F5F7F4F24
:102F7000C8010E94081D42E050E0BE016F5F7F4F14
:102F8000C8010E94081D5601F5018081882311F1B6
:102F9000F6015F018191811115C045018C189D08D2
:102FA0001814190494F48D8641E050E0BE01635F6B
:102FB0007F4FC8010E94081DA401B601C8010E94EC
:102FC000081D03C08E3229F7E8CF6501FFEFCF1A45
:102FD000DF0ADACF1D8641E050E0BE01635F7F4F1C
:102FE000C8010E94081DC12CDD24D394DA82C98255
:102FF00042E050E0BE016F5F7F4FC8010E94081D94
:10300000DA82C98242E050E0BE016F5F7F4FC801A3
:103010000E94081DC8010E940921892B09F471CF63
:1030200083E0A82EB12CF2E06F0E711C0E94CC2C14
:103030001B012C01C8010E94AD1C18161906A4F032
:103040000E94CC2CDC01CB0182199309A409B5099B
:1030500089389341A105B105D0F462E370E080E0C6
:1030600090E00E94C116E6CFF7014281538164814E
:103070007581808D918DA28DB38D481759076A0790
:103080007B0741F4848D958DC59721F406C02FEF01
:103090003FEF94C02EEF3FEF91C0F70181A192A1C5
:1030A0000C970CF4E3C04CE050E0BE016F5F7F4F23
:1030B000C8010E94391C8B819C81982789279827F9
:1030C0009A8B898BF7014681578129813A81421772
:1030D000530709F0C2C097FFC0C08F709270892B50
:1030E00009F0BEC0CF80D884DC24CD24DC24C114F8
:1030F000D10409F4B8C0812C912C8D819E81982730
:10310000892798278816990608F46AC0812C912C83
:1031100041E050E0BE016D5E7F4FC8010E94391C46
:103120004B89842F807C09F07AC0442331F050E031
:1031300060E070E0C8010E94391C8B898111E8CFE2
:1031400042E050E0BE01615F7F4FC8010E94391C20
:1031500042E050E0BE01635F7F4FC8010E94391C0E
:1031600044E050E060E070E0C8010E94391C42E099
:1031700050E0BE016F5E7F4FC8010E94391C8F85F1
:10318000988949895A898115914009F051C02D8546
:103190003E853227232732272130310509F048C0E8
:1031A0004115544009F056C044E050E0B301C80155
:1031B0002C8B3D8B0E94391C2C893D896901F1E0E3
:1031C000AF1AB10829F02FEFC216D20609F42ECF9C
:1031D000C8010E94021CC6014CC08EEF9FEF49C07F
:1031E00041E050E0BE01635F7F4FC8010E94391C7F
:1031F0004D85442331F050E060E070E0C8010E944A
:10320000391C8D858111ECCF44E050E060E070E026
:10321000C8010E94391CFFEF8F1A9F0A6ECF41E050
:1032200050E060E070E0C8010E94391C1B8A85CF25
:1032300054274527542760E070E0C8010E94391CDC
:10324000EFEF8E1A9E0A8C149D0409F061CF26EFD1
:103250003FEFB4CF27EF3FEFB1CF2CEF3FEFAECF33
:103260002BEF3FEFABCF2AEF3FEFA8CF2DEF3FEF94
:10327000A5CF65960FB6F894DEBF0FBECDBFDF9128
:10328000CF911F910F91FF90EF90DF90CF90BF9063
:10329000AF909F908F907F906F905F904F903F90F6
:1032A0002F9008952F923F924F925F926F927F924C
:1032B0008F929F92AF92BF92CF92DF92EF92FF9246
:1032C0000F931F93CF93DF93CDB7DEB7E9970FB678
:1032D000F894DEBF0FBECDBF7C011A012B0139016E
:1032E0000E94CC2C4B015C0187010D5B1F4FC80174
:1032F0000E94AD1C18161906A4F00E94CC2CDC010B
:10330000CB0188199909AA09BB09281639064A066A
:103310005B06D8F062E370E080E090E00E94C116A6
:10332000E6CF42E250E0BE016F5F7F4FC8010E94CE
:10333000391C8981823011F080E035C1F80184891F
:10334000958983349105C1F702C08FEF2CC16D813F
:103350007E818F8198850E94983A4B015C01F30130
:10336000608371838283938346E050E0B701685F96
:103370007F4FCE014D960E94BA3C892BE9F6F701AA
:1033800080819181A281B38188169906AA06BB0625
:1033900098F284819581A681B78188159905AA053F
:1033A000BB0550F289899A89AB89BC898687978742
:1033B000A08BB18B4EEC50E060E070E0C8010E9441
:1033C000391C1FA66701F2E2CF0ED11CC7018696F9
:1033D00099AB88ABF701BA96FBABEAAB4701FAE1D0
:1033E0008F0E911C8D969DAB8CABF7017296FFAB47
:1033F000EEABCD9799AF88AF37019EE1690E711C96
:10340000F801818D928D181619060CF0CBC0C801F9
:103410000E94581C8333910509F4A0C0ACF481309C
:10342000910569F11CF4892B59F3B1C083309105E2
:1034300071F1069709F0ABC0C8010E94581C5C01ED
:1034400044E050E0B3012BC08A33910509F45AC01F
:1034500034F48533910559F0C69749F198C08B3300
:10346000910509F465C08F3F910551F290C0C801E4
:103470000E94581CC8010E94581C8FA7C1CFC801C8
:103480000E94581C44E050E06EA97FA987C0C80183
:103490000E94581C5C0144E050E068AD79ADC80161
:1034A0000E94391CA50155274450510975C0C80117
:1034B0000E94581C5C01B401CE0189960E94E90B60
:1034C0008BA59CA5ADA5BEA5892B8A2B8B2BA1F026
:1034D000ECA9FDA92080318042805380B401CE0147
:1034E00083960E94E90B8DA19EA1AFA1B8A582157C
:1034F0009305A405B50521F444E050E0B4014EC0A5
:10350000A50149C0C8010E94581C44E050E068A9C8
:1035100079A9C8010E94391CF70166A177A180A58D
:1035200091A50E94983A66A377A380A791A768CF38
:10353000C8010E94581C44E050E06AA97BA9C80158
:103540000E94391CF70162A573A584A595A50E9468
:10355000983A62A773A784A795A752CFC8010E9483
:10356000581C44E050E0B601C8010E94391CF70124
:1035700062A173A184A195A10E94983A62A373A34A
:1035800084A395A366A777A780AB91AB39CFC80179
:103590000E94581CAC01552760E070E0C8010E94F1
:1035A000391C2ECF8FA5E9960FB6F894DEBF0FBE5B
:1035B000CDBFDF91CF911F910F91FF90EF90DF90E2
:1035C000CF90BF90AF909F908F907F906F905F90C3
:1035D0004F903F902F9008950895CF93DF931F92BF
:1035E000CDB7DEB76983DC01ED91FC910280F381F8
:1035F000E02D41E050E0BE016F5F7F4F19950F90C5
:10360000DF91CF910895FC01818D928D0895FC0189
:10361000848595850895FC0184899589089529E418
:1036200033E0FC0131832083FB01408951896289A9
:103630007389FC0142835383648375830895DC019D
:10364000ED91FC91048CF58DE02D1994CF93DF93CF
:103650001F92CDB7DEB76983DC01ED91FC9102804A
:10366000F381E02D41E050E0BE016F5F7F4F19957F
:103670000F90DF91CF910895FC019485FB01848523
:10368000981303C081E0983008F080E00895EF922D
:10369000FF920F931F93CF93DF931F921F92CDB78B
:1036A000DEB7FC012485283018F57C0100E021E01C
:1036B00040E85FE965ED70E0CE0101960E94AE281A
:1036C00089819A810E94AB2822E030E0AE014F5FF1
:1036D0005F4F60E170E0F70184850E9498280981BE
:1036E00010E0102F00278A81082B0E94AA2802C010
:1036F00000E010E0C8010F900F90DF91CF911F9173
:103700000F91FF90EF900895EF92FF920F931F9308
:10371000CF93DF931F921F92CDB7DEB7FC012485B4
:10372000283018F57C0100E021E040E85FE965ED14
:1037300070E0CE0101960E94AE2889819A810E9494
:10374000AB2822E030E0AE014F5F5F4F64E070E0F5
:10375000F70184850E949828098110E0102F002726
:103760008A81082B0E94AA2802C000E010E0C8014C
:103770000F900F90DF91CF911F910F91FF90EF90DD
:103780000895CF92DF92EF92FF920F931F93CF9302
:10379000DF9300D000D0CDB7DEB78C016B017A018A
:1037A000FC01808D883010F40E94530A89E493E074
:1037B0009A838983F60182819381A481B5818B8369
:1037C0009C83AD83BE83B701CE0101960E94A213F4
:1037D000F801808F883030F4F586E486128E118EE1
:1037E00081E001C080E026960FB6F894DEBF0FBEE0
:1037F000CDBFDF91CF911F910F91FF90EF90DF90A0
:10380000CF900895CF93DF93FC01808D883028F40A
:10381000EF010E94530A88E0888FDF91CF910895CD
:10382000FC01808D883040F4218D328D232B21F0D6
:103830000E94DD0890E008958FEF9FEF0895CF93E9
:10384000DF93FC012485283018F08FEF9FEF0EC026
:10385000EC010190F081E02D0084F185E02D1995B7
:10386000892B99F38C850E94DD0890E0DF91CF9140
:103870000895CF93DF93FC01218D328D2115310501
:1038800019F48FEF9FEF11C0EC014217530708F0B6
:10389000A901888D0E9450091816190694F7298DE0
:1038A0003A8D281B390B3A8F298FDF91CF910895DC
:1038B0000F931F93CF93DF931F92CDB7DEB7FC0119
:1038C000218D328D232B61F08C0141E050E0BE014F
:1038D0006F5F7F4F808D0E945009181619061CF0EB
:1038E0008FEF9FEF08C0F801818D928D0197928F25
:1038F000818F898190E00F90DF91CF911F910F917F
:103900000895CF93DF931F92CDB7DEB741E050E02B
:10391000BE016F5F7F4FFC0184850E94500918161D
:1039200019061CF4898190E002C08FEF9FEF0F9081
:10393000DF91CF910895FC018485883010F40C94B8
:10394000500980E090E00895FC018485883010F4EF
:103950000C94130980E090E008950F931F93CF9388
:10396000DF93CDB7DEB728970FB6F894DEBF0FBE52
:10397000CDBF8C01F801418D528D4115510559F093
:10398000D801ED91FC91048CF58DE02D60E070E0A4
:10399000C8011995EFCF808D0E941309892B59F129
:1039A00048E050E0BE016F5F7F4FD80158968C9180
:1039B0000E9450099C0118161906DCF489819A812D
:1039C000AB81BC81F801808B918BA28BB38B8D81F5
:1039D00090E0982F88272E81820F911D958B848BE4
:1039E0002F8130E0322F22278885280F311D328F1A
:1039F000218FC90102C080E090E028960FB6F894AC
:103A0000DEBF0FBECDBFDF91CF911F910F91089503
:103A10006F927F928F929F92AF92BF92DF92EF92BE
:103A2000FF920F931F93CF93DF931F921F92CDB7F7
:103A3000DEB77C014B013A01FC01A688B788D08C27
:103A400000E021E040E85FE965ED70E0CE0101961D
:103A50000E94AE2889819A810E94AB288D2D0E94F8
:103A6000DC078C016816790608F483019801A4012B
:103A7000B5018D2D0E9457070E94AA28F70186895B
:103A80009789800F911F978B868BC8010F900F909D
:103A9000DF91CF911F910F91FF90EF90DF90BF903A
:103AA000AF909F908F907F906F900895CF92DF920C
:103AB000EF92FF920F931F93CF93DF93CDB7DEB7B3
:103AC000AF970FB6F894DEBF0FBECDBF7C016A0181
:103AD00009E413E01A8309831C861B8688EE93E0B1
:103AE000A0E0B0E08D879E87AF87B88B83E592E03A
:103AF0009A878987188F0F8B198E1A8E1B8E1C8EB2
:103B000088E089A31DA30CA31EA21FA218A619A6B4
:103B10008091A7089091A808A091A908B091AA083F
:103B20008CA79DA7AEA7BFA78B839C83AD83BE83C5
:103B300018861F82AE014C5D5F4FCE0101960E9438
:103B4000FB1681309105B1F4D701ED91FC91048809
:103B5000F589E02D1BA70AA78EA19FA1A8A5B9A54D
:103B60008CA79DA7AEA7BFA7A601BE01665D7F4F2C
:103B7000C7011995AF960FB6F894DEBF0FBECDBF43
:103B8000DF91CF911F910F91FF90EF90DF90CF9039
:103B900008950F931F93CF93DF93FC0184858830A2
:103BA00068F4C52FD42F8F010E945208009749F462
:103BB00021E030E0F8013383228305C080E090E00B
:103BC00002C08D2F9C2FDF91CF911F910F910895EF
:103BD000CF92DF92EF92FF920F93CF93DF9300D0BB
:103BE0001F92CDB7DEB77C016B01FB018485883065
:103BF00050F089E493E0F70191838083128213826D
:103C00001482158221C000E021E040E85FE965ED03
:103C100070E0CE0101960E94AE2889819A810E94AF
:103C2000AB2824E030E0AE014F5F5F4F6CE070E006
:103C3000F60184850E9498280E94AA28BE016F5F21
:103C40007F4FC7010E94E90BC7010F900F900F90A3
:103C50000F90DF91CF910F91FF90EF90DF90CF9079
:103C600008952091B20590E0233311F40C9601C021
:103C70004896982F990F990F990F80E00895DA01CF
:103C80009091EB04E92FF0E0FE2FEE27E60FF71FEF
:103C900090E0982F8827A901BD018E0F9F1F0C94DB
:103CA0007304CF93DF931F921F92CDB7DEB7798352
:103CB0006A8322E030E0AE014F5F5F4F60E170E069
:103CC0000E943F1E0F900F90DF91CF910895CF93E8
:103CD000DF931F921F92CDB7DEB779836A8322E00C
:103CE00030E0AE014F5F5F4F64E070E00E943F1E26
:103CF0000F900F90DF91CF910895CF92DF92EF92C6
:103D0000FF920F931F93CF93DF931F921F92CDB714
:103D1000DEB7FB01DC0157961C921E92569758960F
:103D20001C918281811109C08381811106C0848127
:103D3000811103C08581882329F14115510511F1B5
:103D40006A017F0100E021E040E85FE965ED70E095
:103D5000CE0101960E94AE2889819A810E94AB28EB
:103D6000A7014E5F5F4F24E030E06CE070E0812FF0
:103D70000E943F1EB601812F0E94511E0E94AA2858
:103D800081E001C080E090E00F900F90DF91CF9133
:103D90001F910F91FF90EF90DF90CF900895CF93F8
:103DA000DF931F92CDB7DEB79091EB04292F30E05F
:103DB000322F2227260F371F90E0982F882749831C
:103DC00041E050E0BE016F5F7F4F820F931F0E9462
:103DD00073040F90DF91CF910895CF93DF931F92DB
:103DE000CDB7DEB79091EB04292F30E0322F222798
:103DF000260F371F90E0982F882741E050E0BE0142
:103E00006F5F7F4F820F931F0E94D30389810F90B2
:103E1000DF91CF91089563E070E00C94ED1E0F9355
:103E20001F93CF93DF9300D0CDB7DEB7182F00E0FC
:103E300021E040E85FE965ED70E0CE0101960E9467
:103E4000AE2889819A810E94AB28812F0E940B1F86
:103E50008B830E94AA288B810F900F900F90DF9187
:103E6000CF911F910F910895EF92FF920F931F939F
:103E7000CF93DF937C018091B205833311F4D4E0BA
:103E800001C0D8E002EA15E0C0E0F80121913191CB
:103E90008F01F701848195812817390729F0CF5FB9
:103EA000CD13F3CF80E006C08C2F0E940F1F84310A
:103EB000B1F781E0DF91CF911F910F91FF90EF90CB
:103EC0000895CF93DF93EC018C858830C8F40E946D
:103ED0000F1F843181F0882371F0883161F08C31BB
:103EE00061F4E881F9810084F185E02DCE01199516
:103EF00021E0892B19F420E001C021E0822F01C0CC
:103F000080E0DF91CF910895CF92DF92EF92FF9200
:103F1000CF93DF93EC018C85883038F50E942E0A10
:103F20000E94CC2C6B017C018C850E940F1F882382
:103F3000D1F061E070E080E090E00E94C1160E9444
:103F4000CC2CAB01BC014C195D096E097F098D8534
:103F50009E85A0E0B0E0481759076A077B0720F369
:103F60008C850E94530A88E08C87DF91CF91FF9067
:103F7000EF90DF90CF900895CF93DF93EC018C8585
:103F8000883060F40E940F1F873111F08C3131F4BA
:103F90008C850E941B088115984088F3DF91CF9192
:103FA00008956F927F928F929F92AF92BF92CF921D
:103FB000DF92EF92FF920F931F93CF93DF93CDB7D2
:103FC000DEB72A970FB6F894DEBF0FBECDBF909133
:103FD000B205992309F4A1C0933319F454E0652E76
:103FE00002C048E0642E6B01782E00E021E040E83A
:103FF0005FE965ED70E0CE0101967C010E94AE287C
:1040000089819A810E94AB28570147010E2D182DF6
:104010001E19812F0E940B1FF40181934F018823E9
:10402000E1F08E2F8E19861590F31A2D101BF501D5
:1040300091915F019D3161F0983151F09A51923028
:1040400038F08E2F801B861580F30E94AA2865C049
:1040500060E170E0812F0E94AF03A12EB12CF50129
:10406000EE0FFF1FEE55FA4F1182108283EE93E0A0
:104070000197F1F7472D60E070E0812F0E94CF1E7D
:104080004FEF62E070E0812F0E94CF1EC114D10477
:1040900011F0B60113C080910602909107020196BB
:1040A0008115F0EC9F0710F480E090EC90930702EC
:1040B000809306026091060270910702812F0E9490
:1040C000671E61E070E0812F0E94AF0327E02A9D08
:1040D000C0012B9D900D11249C0126593A4F790166
:1040E000F9011182108222E030E0AE01475F5F4F9C
:1040F00068E270E0812F0E949828898590E0982FCF
:1041000088272A85822BF701938382831682158262
:1041100014820E94AA28812F01C088E02A960FB637
:10412000F894DEBF0FBECDBFDF91CF911F910F91ED
:10413000FF90EF90DF90CF90BF90AF909F908F90C7
:104140007F906F9008950F931F93CF93DF93EC01AF
:104150008B01888D883010F40E94530AB80182E0E8
:104160000E94D11F888F883030F41D870C871A8EEB
:10417000198E81E001C080E0DF91CF911F910F91F6
:104180000895EF92FF920F931F93CF93DF931F92A7
:104190001F92CDB7DEB77C01FC016481758181E29D
:1041A0000E94D11F182F883058F500E021E040E828
:1041B0005FE965ED70E0CE0101960E94AE2889812D
:1041C0009A810E94AB28812F0E940B1F833131F00E
:1041D0000E94AA28812F0E942E0A12C062E070E07D
:1041E000812F0E94AF030E94AA28F7018481958144
:1041F000E12FF0E0EE0FFF1FEE55FA4F9183808321
:104200000F900F90DF91CF911F910F91FF90EF9042
:1042100008950F931F93CF93DF931F921F92CDB7F3
:10422000DEB7FC01108D00E021E040E85FE965EDBC
:1042300070E0CE0101960E94AE2889819A810E9489
:10424000AB2860E270E0812F0E94AF0362E070E073
:10425000812F0E94ED1E84FD22C062E070E0812F5C
:104260000E94ED1E83FF0AC048E162E070E0812FEA
:104270000E94CF1E0E94AA2880E01AC00E94AA288D
:1042800000E021E040E85FE965ED70E0CE010196D5
:104290000E94AE2889819A810E94AB28D7CF40E145
:1042A00062E070E0812F0E94CF1E0E94AA2881E068
:1042B00090E00F900F90DF91CF911F910F91089593
:1042C0009F92AF92BF92CF92DF92EF92FF920F93A5
:1042D0001F93CF93DF93EC016B018091B2058111A5
:1042E00011C01B821A8288EE93E0A0E0B0E08C83BC
:1042F0009D83AE83BF8383E892E09983888388E0BF
:104300008C8756C0833319F434E0932E02C028E022
:10431000922E82EAE82E85E0F82E10E098E0B92E81
:10432000A12CD7012D913C91F6018481958128170C
:104330003907F9F4812F0E940F1F082F873111F0E0
:104340008C3159F4812F0E941309892B71F40C319F
:1043500081F4812F0E942E0A0CC0843141F081111A
:1043600008C0D7011D921C9204C0B12E02C0AA241D
:10437000A3941F5FB2E0EB0EF11C1911D2CFA11074
:1043800008C0D601ED91FC910084F185E02DC601B5
:1043900019951B821A8288EE93E0A0E0B0E08C832E
:1043A0009D83AE83BF8383E892E099838883BC8634
:1043B00088EE93E09E878D87CE01DF91CF911F918C
:1043C0000F91FF90EF90DF90CF90BF90AF909F90B4
:1043D00008958F929F92AF92BF92CF92DF92EF9209
:1043E000FF920F931F93CF93DF93CDB7DEB72F9735
:1043F0000FB6F894DEBF0FBECDBF2091B2052223C9
:1044000069F1233319F434E0E32E02C028E0E22EF0
:104410008A015B016C01BC01CE0101960E94602102
:1044200082EA882E85E0982EF12CF40121913191B9
:104430004F01F601848195812817390751F48F2D9A
:104440000E940F1F873129F4A801B5018F2D0E940A
:104450005208F394FE10E9CFC80102C080E090E05A
:104460002F960FB6F894DEBF0FBECDBFDF91CF9170
:104470001F910F91FF90EF90DF90CF90BF90AF9082
:104480009F908F900895CF93DF93EC016A8B80917A
:10449000080290910902A0910A02B0910B028E8746
:1044A0009F87A88BB98B80E2689FF0011124E954A3
:1044B000FA4F4489558960E070E0BA0155274427D6
:1044C0004F8B588F698F7A8F828D938DA0E0B0E0EB
:1044D000482B592B6A2B7B2B4F8B588F698F7A8FE8
:1044E0008385887151F4848D958DA68DB78D8B8BC6
:1044F0009C8BAD8BBE8B81E00EC0803111F080E0D3
:1045000015C09E012D5E3F4F8B8D9C8D0E94A00F8C
:104510008823A9F384E08D8381E08C831E821F822F
:10452000188619861A861B861C861D86DF91CF91F8
:104530000895AF92BF92CF92DF92EF92FF920F93C6
:104540001F93CF93DF93CDB7DEB72B970FB6F894B9
:10455000DEBF0FBECDBF7C01CE0101966C01FC0118
:1045600090E28BE08C0D91938E13FDCFDA0120E069
:1045700037E09D91992339F19E3219F0EDEDF3E08A
:104580000AC03A3009F4AAC028E03AE0F2CF3196E6
:10459000891709F4A3C084918111F9CF321708F467
:1045A0009DC08FED890F8E3508F098C081E0820F95
:1045B000F601E20FF11D2FE9290F2A3108F490527C
:1045C0009083282FD6CF8981803209F487C08B0150
:1045D000FB01838D948DF701948F838FFB011682ED
:1045E0001782108611861286138614861586A12CD2
:1045F000F80182859385A485B585438954896589A9
:10460000768984179507A607B70708F067C025E0E5
:10461000B695A795979587952A95D1F7F82FFF70AE
:10462000BF2EF8018581823008F458C0C8010E946D
:10463000180697FD53C0F80182859385A485B5853A
:104640004F96A11DB11D82879387A487B587F0E29D
:10465000BF9EC0011124BC0169547A4F61157105D8
:10466000E9F1FB0120812223B9F1253EE1F04BE085
:1046700050E0C6010E94BA3C892B09F0B9CF6B2DDE
:10468000C7012B960FB6F894DEBF0FBECDBFDF91EA
:10469000CF911F910F91FF90EF90DF90CF90BF903F
:1046A000AF900C944322A11014C0F701B28A40913C
:1046B00008025091090260910A0270910B0246872C
:1046C0005787608B718BFC01E954FA4F80818823F6
:1046D00029F0AA24A3948CCFAA2039F380E02B964A
:1046E0000FB6F894DEBF0FBECDBFDF91CF911F9103
:1046F0000F91FF90EF90DF90CF90BF90AF90089513
:10470000CF93DF93FC012581222311F080E049C083
:10471000EC0180917F088031C1F482E08583178AA3
:10472000108E118E128E8091800890918108A0E0E9
:10473000B0E025E0880F991FAA1FBB1F2A95D1F76B
:10474000838B948BA58BB68B19C08032F9F683E0EE
:10475000858340918208509183086091840870910C
:104760008508478B508F618F728F9F012D5E3F4F61
:1047700088E698E00E94A00F882341F288E698E03E
:104780009C8F8B8F81E08C831E821F8218861986F6
:104790001A861B861C861D861E861F86188A198A05
:1047A0001A8ADF91CF9108959091AB08E091AC08FF
:1047B000F091AD08392F309580FF13C0F894228115
:1047C000832F822382838181892B8183A3E2B0E0BE
:1047D0001197F1F78281982B9283789487ED90E07E
:1047E00012C0F8942281832F822382838181892BB6
:1047F0008183AFEFB0E01197F1F78281982B92831C
:1048000078948FE090E00197F1F708958091AB08DC
:10481000E091AC08F091AD08F8949181982B9183C8
:104820002281982F909529232283A7E0B0E0119749
:10483000F1F7218192239183A3E2B0E01197F1F780
:1048400090817894EFECF0E03197F1F7982381E0D4
:1048500009F480E008958F929F92AF92BF92CF9219
:10486000DF92EF92FF92CF93DF93C82F8CE598E011
:104870009093B5058093B405CC2369F1C53010F051
:1048800080E00DC140E060E070E0CB010E94330E9B
:104890008823B1F320E1C29FC001112489559A4FAA
:1048A000FC01E254FE4F20812F7751F73C96408166
:1048B000518162817381443651056105710500F3B0
:1048C0003497C080D180E280F380C114D104E10428
:1048D000F10421F4D5CFC12CD12C760140E0C701E1
:1048E000B6010E94330E882359F28091C20590913F
:1048F000C3058115924021F6A091C705AA2309F4AA
:10490000BFCF6091C5057091C6056115710509F4A9
:10491000B7CF2091C405222309F4B2CFA0937A081F
:1049200020936C0880E030E0E1E0F0E0C82FAF01B8
:10493000082E02C0440F551F0A94E2F724173507CA
:1049400041F0982F8F5F983089F789E08093750840
:1049500097CF809375082091CD053091CE05211514
:10496000310519F040E050E008C02091DB0530919E
:10497000DC054091DD055091DE0520936D083093F4
:104980006E0840936F085093700846015701860ED9
:10499000971EA11CB11C80927B0890927C08A0926B
:1049A0007D08B0927E08E091C805F091C905F093AA
:1049B0008108E0938008B0E00E944C3A860E971E72
:1049C000A81EB91E8092820890928308A092840843
:1049D000B092850885E0EE0FFF1F8A95E1F7E15060
:1049E000FE4FEF2FFF27E6958E0E9F1EA11CB11CD8
:1049F0008092760890927708A0927808B092790811
:104A00002091CA053091CB052115310521F0A9016E
:104A100060E070E008C04091D7055091D8056091E2
:104A2000D9057091DA05D701C60188199909AA0933
:104A3000BB09840F951FA61FB71F04C0B695A79585
:104A400097958795CA95D2F78093710890937208CD
:104A5000A0937308B0937408853F2FE09207A105D7
:104A6000B10510F48CE018C0853F9F4FA105B1053A
:104A700010F480E111C08091E3059091E405A091CC
:104A8000E505B091E6058093820890938308A09392
:104A90008408B093850880E280937F0881E0DF91ED
:104AA000CF91FF90EF90DF90CF90BF90AF909F900D
:104AB0008F9008952F923F924F925F926F927F92C4
:104AC0008F929F92AF92BF92CF92DF92EF92FF921E
:104AD0000F931F93CF93DF93CDB7DEB7C058D109A3
:104AE0000FB6F894DEBF0FBECDBF7C018B012A014B
:104AF000EB961FAE1EAEEB97ED961FAE1EAEED977A
:104B0000EF961FAE1EAEEF9765EC73E0CE018758AF
:104B10009F4F0E94E72DE5961FAE1EAEE597E796E4
:104B20001FAE1EAEE797E9961FAE1EAEE99763EB88
:104B300073E0CE018D589F4F0E94E72D6DE274E027
:104B40008DEB97E00E94C72EB8018DEB97E00E9495
:104B50003B2FF8018080918019A218A281E393E095
:104B60009F8F8E8F1BA21C821B829A8389831E8239
:104B7000CE014E960E9480233401CE0101965C0145
:104B80008E01025E1F4F1C016FE270E0C3010E94A4
:104B9000D73C009709F441C0F30120812F3221F462
:104BA000FFEF6F1A7F0AF0CF86198D3008F08CE086
:104BB000C82ED12CA601B301CE01885A9F4F0E9466
:104BC000F23CE8E5F0E0EC0FFD1FEC0DFD1D10825E
:104BD000C5010E94E011F5018581882351F01EAEC8
:104BE0001DAE81E393E09CAF8BAF21961FAE219762
:104BF00068C0AE01485A5F4FB801C5010E949922B2
:104C0000882369F36C0C7D1CC8010E94E011902F71
:104C1000812F8501A92EB82EB7CFC3018819990914
:104C2000C158DF4F99838883CF57D040F8018281E4
:104C300093819EAF8DAF81E393E09CAF8BAF848176
:104C40008FAF858121968FAF219786819781A0852F
:104C5000B18525968CAF9DAFAEAFBFAF259782854E
:104C60009385A485B58529968CAF9DAFAEAFBFAFB8
:104C7000299786859785A089B1892D968CAF9DAFA0
:104C8000AEAFBFAF2D9782892E968FAF2E978389B7
:104C90009489A589B68962968CAF9DAFAEAFBFAF40
:104CA00062978789908DA18DB28D66968CAF9DAFEE
:104CB000AEAFBFAF6697838D948D68969FAF8EAF72
:104CC0006897C158DF4F88819981CF57D040880EAF
:104CD000991EF401808181114DC08DAD9EAD9C83E4
:104CE0008B8381E393E09A8389838FAD8D832196B3
:104CF0008FAD21978E8325968CAD9DADAEADBFADAA
:104D000025978F839887A987BA8729968CAD9DAD03
:104D1000AEADBFAD29978B879C87AD87BE872D969B
:104D20008CAD9DADAEADBFAD2D978F87988BA98B08
:104D3000BA8B2E968FAD2E978B8B62968CAD9DADD8
:104D4000AEADBFAD62978C8B9D8BAE8BBF8B6696E5
:104D50008CAD9DADAEADBFAD6697888F998FAA8F94
:104D6000BB8F68968EAD9FAD68979D8F8C8F49E302
:104D700054E06FC019A218A201E313E01F8F0E8F39
:104D80001BA221968FAD219781111CC06C961FAE7E
:104D90001EAE6C9788EE93E0A0E0B0E0A0968CAFDA
:104DA0009DAFAEAFBFAFA09781EB92E06A969FAF89
:104DB0008EAF6A97E3961FAE1EAEE397A5961FAE21
:104DC000A5974DC0A401BE01655C7F4FCE014E96F4
:104DD0000E9499228823D1F2CE01CB960E94E01145
:104DE00088A199A19C838B831A8309838AA18D83CF
:104DF0008BA18E838CA19DA1AEA1BFA18F8398872B
:104E0000A987BA8788A599A5AAA5BBA58B879C87E2
:104E1000AD87BE878CA59DA5AEA5BFA58F87988BB6
:104E2000A98BBA8B88A98B8B89A99AA9ABA9BCA994
:104E30008C8B9D8BAE8BBF8B8DA99EA9AFA9B8AD76
:104E4000888F998FAA8FBB8F89AD9AAD9D8F8C8FDC
:104E5000A401B101CE01885A9F4F0E94E305E39659
:104E6000EEADFFADE397309709F446C08581882306
:104E700009F442C06BE374E08DEB97E00E94292FA8
:104E800063EA73E0C7010E94582FB201C7010E9474
:104E90003B2FBE016D587F4FC7010E943B2FC701BA
:104EA0000E94252FCE01885A9F4F0E940703892B0D
:104EB00051F0CE01885A9F4F0E942307682FC701E7
:104EC0000E94CD27EFCFE3968EAD9FADE39700977D
:104ED00061F00E94E011E3968EAD9FADE3970E94D2
:104EE000343BE3961FAE1EAEE39763E474E08DEBB4
:104EF00097E00E94292F2DC06AE474E08DEB97E0C3
:104F00000E94292F6CE873E0C7010E94582F64E7C4
:104F100073E0C7010E94582FBE016D587F4FC70133
:104F20000E943B2FC7010E94252F64E673E0C70152
:104F30000E94582F6DE573E0C7010E94582F64E36B
:104F400073E0C7010E94582F6CE273E0C7010E9412
:104F5000582FCE018D589F4F0E945E2ECE0187584C
:104F60009F4F0E945E2EC058DF4F0FB6F894DEBFF1
:104F70000FBECDBFDF91CF911F910F91FF90EF90AA
:104F8000DF90CF90BF90AF909F908F907F906F9069
:104F90005F904F903F902F900895CF93DF931F9293
:104FA000CDB7DEB76983DC01ED91FC910280F3811E
:104FB000E02D41E050E0BE016F5F7F4F19950F90EB
:104FC000DF91CF910895FC01768765870895DC0114
:104FD000ED91FC91068CF78DE02D199591E08927D4
:104FE0000895862F089581E08627089521E0FC0129
:104FF0008485883008F020E0822F089580E00895AD
:10500000089580E090E00895FC018485883010F4D4
:105010000C941B0880E090E00895CF92DF92EF920D
:10502000FF920F931F93CF93DF93CDB7DEB7AF9768
:105030000FB6F894DEBF0FBECDBF8C016B017A01B5
:1050400089E493E09A8389831B821C821D821E82DD
:105050001C861B8648EE53E060E070E04D875E875B
:105060006F87788B23E532E03A872987988F8F8B7B
:10507000198E1A8E1B8E1C8E28E029A39DA38CA34B
:105080001EA21FA218A619A6D8011C968C918830C2
:1050900060F40E940F1F882321F0F80184850E948C
:1050A0002E0A88E0D8011C968C938091A7089091D5
:1050B000A808A091A908B091AA088CA79DA7AEA79F
:1050C000BFA78B839C83AD83BE8318861F82AE01EE
:1050D0004C5D5F4FB601CE0101960E94FB16009712
:1050E000C1F0D801ED91FC910684F785E02D89E4AB
:1050F00093E09BA78AA78EA19FA1A8A5B9A58CA77D
:105100009DA7AEA7BFA7A701BE01665D7F4FC801DF
:105110001995AF960FB6F894DEBF0FBECDBFDF91E5
:10512000CF911F910F91FF90EF90DF90CF90089556
:10513000DA019091EB04E92FF0E0FE2FEE27E60F65
:10514000F71F90E0982F8827A901BD018E0F9F1FA0
:105150000C94D30308958CBD9DBD08950F93FC015D
:1051600030E080E092E1AAE7B0E0481759076A070B
:105170007B0740F4B695A795979587953F5F3630A6
:10518000A1F737E091E09327222311F020E501C039
:1051900020E7892F86950C70082B022B00839170D5
:1051A00091830F9108958F929F92AF92BF92CF9269
:1051B000DF92EF92FF920F931F93CF93DF931F9293
:1051C0001F92CDB7DEB77C016B015A01FC018485CB
:1051D000883058F40E940F1F882321F0F70184853E
:1051E0000E942E0A88E0F7018487F601828193816C
:1051F000A481B5810097A105B10509F460C08F3F76
:105200009F4FAF4FBF4F09F45AC060E070E081E29A
:105210000E94D11F182FF7018487883008F04FC0F3
:1052200000E021E040E85FE965ED70E0CE01019625
:105230000E94AE2889819A810E94AB28A6014E5F08
:105240005F4F24E030E06CE070E0812F0E943F1E51
:10525000B501812F0E94511E64E070E0812F0E94F1
:10526000AF030E94CC2C4B015C01F70184850E94A6
:105270000F1F873139F18C3129F1882301F10E9408
:10528000CC2CAB01BC01481959096A097B09F7010B
:1052900085859685A0E0B0E084179507A607B70737
:1052A00038F061E070E080E090E00E94C116DDCF50
:1052B000F70184850E94530A88E0F701848780E023
:1052C00090E002C081E090E00F900F90DF91CF91CD
:1052D0001F910F91FF90EF90DF90CF90BF90AF9014
:1052E0009F908F9008958F929F92AF92BF92CF928E
:1052F000DF92EF92FF920F931F93CF93DF93CDB77F
:10530000DEB7C054D1090FB6F894DEBF0FBECDBFD3
:1053100080E4E1ECF2E0DE01119601900D928A95B5
:10532000E1F704E010E088248A94982C5401C80125
:105330000E94173AA50194012827DA01C9018F704C
:105340009927AA27BB27880F991F880F991FE1E08B
:10535000F0E0EC0FFD1FE80FF91FC080D180E28064
:10536000F38034E0B694A794979487943A95D1F754
:10537000C824D924EA24FB24C8010E94173A482FE4
:1053800050E064E0559547956A95E1F7052E000CCD
:10539000660B770B4C255D256E257F254F705527B5
:1053A00066277727440F551F440F551FE1E0F0E0B3
:1053B000EC0FFD1FE40FF51F80809180A280B38069
:1053C000E4E0F694E794D794C794EA95D1F78C2457
:1053D0009D24AE24BF2480949094A094B0940F5F39
:1053E0001F4F011530E1130709F0A1CFC501B4012A
:1053F000C05CDF4F0FB6F894DEBF0FBECDBFDF91AC
:10540000CF911F910F91FF90EF90DF90CF90BF90C1
:10541000AF909F908F900895EF92FF920F931F93FC
:10542000CF93DF93EC017B018A016CE974E00E9469
:10543000582F6DE574E0CE010E94292F65E774E0D6
:10544000CE010E94292FCE010E94252F67E874E02B
:10545000CE010E94292F65E974E0CE010E94582FE9
:1054600067E974E0CE010E94C72EF701448155819F
:1054700060817181CE010E94C91D66E874E0CE0191
:105480000E94582F6DE974E0CE010E94C72EF801EA
:105490004481558160817181CE010E94C91D62EAFB
:1054A00074E0CE010E94292F6EE774E0CE01DF91F7
:1054B000CF911F910F91FF90EF900C94582FCF92A6
:1054C000DF92EF92FF920F931F93CF93DF93CDB7AD
:1054D000DEB7AE970FB6F894DEBF0FBECDBF6C013E
:1054E0008B016FE2C8010E94222DF80124813581D1
:1054F000AC01B801CE0189960E94812E0DA51EA592
:10550000CE0101967C010115110511F419820FC01D
:105510000732110510F007E210E069A57AA5A8018D
:10552000C7010E94F23CF701E00FF11F1082CE018B
:1055300089960E945E2E67EE74E0C6010E946C2E72
:105540008701F70101900020E9F73197EE19FF0973
:10555000C8018E199F098E179F0778F4F801619191
:105560008F016A3051F06D3041F0603231F06F33AD
:1055700021F0C6010E94A82DE4CF69E374E0C601C2
:105580000E945B2D882329F068EA74E0C6010E941E
:10559000302EC601AE960FB6F894DEBF0FBECDBF5B
:1055A000DF91CF911F910F91FF90EF90DF90CF90FF
:1055B0000895AF92BF92CF92DF92EF92FF920F9336
:1055C0001F93CF93DF93CDB7DEB7AA970FB6F894AA
:1055D000DEBF0FBECDBF7C018B0167EE74E0CE0154
:1055E00085960E946C2E6DEA74E0CE0143960E946F
:1055F0006C2EBE016D5E7F4FC8010E943B2D811154
:1056000016C062EB74E0CE0101960E946C2EBE01C2
:105610006F5F7F4FC8010E943B2DDD24D394811121
:1056200001C0D12CCE0101960E945E2E02C0DD2465
:10563000D394CE0143960E945E2EDD2019F066E6DB
:1056400074E00CC168EB74E0CE0101960E946C2EF0
:10565000BE016F5F7F4FC8010E943B2DD82ECE0147
:1056600001960E945E2EDD2019F06FE474E0F6C012
:105670006DEB74E0CE0101960E946C2EBE016F5F4F
:105680007F4FC8010E943B2DD82ECE0101960E946B
:105690005E2EDD2019F061E374E0E0C061EC74E09F
:1056A000CE0143960E946C2EBE016D5E7F4FC801F5
:1056B0000E943B2D811116C066EC74E0CE0101966C
:1056C0000E946C2EBE016F5F7F4FC8010E943B2D70
:1056D000DD24D394811101C0D12CCE0101960E940A
:1056E0005E2E02C0DD24D394CE0143960E945E2E2E
:1056F000DD2019F065E174E0B1C06BEC74E0CE011F
:1057000001960E946C2EBE016F5F7F4FC8010E9400
:105710003B2DD82ECE0101960E945E2EDD2009F48D
:105720009BC06DEE73E0C7010E94582F6DE574E0D9
:10573000C7010E94292F65E774E0C7010E94292F45
:10574000C7010E94252F67EE74E0CE014F960E949C
:105750006C2E81E0A82E83E0B82E00E010E0F50169
:1057600081915F011C8A1B8A1E8A1D8A188E1F8ADE
:105770004AE0BE016F5F7F4F90E00E94E239BE01B8
:105780006F5F7F4FCE0143960E94302E0F5F1F4FF9
:105790001A8E198E1C8E1B8E1E8E1D8E4AE0BE0127
:1057A0006F5F7F4FC8010E94E239BE016F5F7F4F7C
:1057B000CE0149960E94302E60ED74E0CE01019634
:1057C0000E946C2E4D8D5E8D698D7A8DCE01019675
:1057D0000E947A2D811104C0CE0101960E94BC2D39
:1057E00065E974E0CE0101960E94CE2D6C014F89CF
:1057F000588D6B897C890E947A2D811103C0C60166
:105800000E94BC2D6EED74E0C6010E94CE2DBC013D
:10581000CE014F960E94472ECE0101960E945E2E29
:10582000CE0149960E945E2ECE0143960E945E2EC6
:10583000BE01615E7F4F8DEB97E00E943B2FBE0162
:10584000615E7F4FC7010E943B2F0830110509F0B0
:1058500086CFCE014F9616C06DEF73E0CE018596D0
:105860000E94E72DBE016B5D7F4FCE0101960E9425
:10587000632EAE014F5F5F4FB801C7010E945A25EA
:10588000CE0101960E945E2ECE0185960E945E2E6C
:10589000AA960FB6F894DEBF0FBECDBFDF91CF91B1
:1058A0001F910F91FF90EF90DF90CF90BF90AF903E
:1058B0000895EF92FF920F931F93CF93DF931F9260
:1058C000CDB7DEB77C01FC0100811181C80169837D
:1058D0000E94173A6981681719F0C8010E941F3A9F
:1058E000C7010F90DF91CF911F910F91FF90EF9023
:1058F00008950895CF92DF92EF92FF920F931F9336
:10590000CF93DF936C017A018B01C0E0D0E0CE151C
:10591000DF0589F0D8016D918D01D601ED91FC91E3
:105920000190F081E02DC6011995892B11F47E01BB
:1059300002C02196ECCFC701DF91CF911F910F914B
:10594000FF90EF90DF90CF9008950F931F93CF9328
:10595000DF93EC0188819981009729F02A813B81AE
:105960002617370788F48B016F5F7F4F0E94CC3B6F
:10597000009761F0998388831B830A832C813D8182
:10598000232B11F4FC01108281E001C080E0DF9143
:10599000CF911F910F9108952FB7F894609114093A
:1059A0007091150980911609909117092FBF0895DC
:1059B0001F920F920FB60F9211242F933F938F9344
:1059C0009F93AF93BF938091140990911509A09173
:1059D0001609B09117093091130923E0230F2D37D1
:1059E00020F40196A11DB11D05C026E8230F0296E3
:1059F000A11DB11D209313098093140990931509DB
:105A0000A0931609B09317098091660590916705D8
:105A1000A0916805B09169050196A11DB11D809303
:105A2000660590936705A0936805B0936905BF91DB
:105A3000AF919F918F913F912F910F900FBE0F903B
:105A40001F901895CF93DF93FC0124813581232B80
:105A500069F0C081D181062E000C770BCE010E9427
:105A6000D73C009719F08C1B9D0B02C08FEF9FEF66
:105A7000DF91CF910895FC0124813581FB014481A0
:105A8000558124173507A0F0FC0180819181009792
:105A900079F0FB01608171816115710549F0241B6A
:105AA000350B820F931F0E94E23C21E0892B09F005
:105AB00020E0822F0895FC0124813581232B31F4CD
:105AC00021E061157105A1F0FB0108C0FC01808196
:105AD00091816115710531F421E0FC0180818823F9
